{
  "contractName": "ProductTraceabilitySystem",
  "abi": [
    {
      "inputs": [],
      "stateMutability": "nonpayable",
      "type": "constructor"
    },
    {
      "anonymous": false,
      "inputs": [
        {
          "indexed": true,
          "internalType": "bytes32",
          "name": "userID",
          "type": "bytes32"
        },
        {
          "indexed": false,
          "internalType": "uint256",
          "name": "timeStamp",
          "type": "uint256"
        }
      ],
      "name": "Ban",
      "type": "event"
    },
    {
      "anonymous": false,
      "inputs": [
        {
          "indexed": true,
          "internalType": "bytes32",
          "name": "userID",
          "type": "bytes32"
        },
        {
          "indexed": true,
          "internalType": "uint32",
          "name": "productionUnitID",
          "type": "uint32"
        },
        {
          "indexed": false,
          "internalType": "uint256",
          "name": "timeStamp",
          "type": "uint256"
        }
      ],
      "name": "Complaint",
      "type": "event"
    },
    {
      "anonymous": false,
      "inputs": [
        {
          "indexed": true,
          "internalType": "uint32",
          "name": "productionUnitID",
          "type": "uint32"
        },
        {
          "indexed": false,
          "internalType": "uint256",
          "name": "timeStamp",
          "type": "uint256"
        },
        {
          "indexed": false,
          "internalType": "uint8",
          "name": "result",
          "type": "uint8"
        }
      ],
      "name": "ComplaintHandled",
      "type": "event"
    },
    {
      "anonymous": false,
      "inputs": [
        {
          "indexed": true,
          "internalType": "bytes32",
          "name": "productionID",
          "type": "bytes32"
        },
        {
          "indexed": true,
          "internalType": "uint32",
          "name": "productionUnitID",
          "type": "uint32"
        },
        {
          "indexed": false,
          "internalType": "uint8",
          "name": "state",
          "type": "uint8"
        },
        {
          "indexed": false,
          "internalType": "uint256",
          "name": "timeStamp",
          "type": "uint256"
        }
      ],
      "name": "Confirm",
      "type": "event"
    },
    {
      "anonymous": false,
      "inputs": [
        {
          "indexed": true,
          "internalType": "uint32",
          "name": "productionUnitID",
          "type": "uint32"
        },
        {
          "indexed": false,
          "internalType": "uint256",
          "name": "timeStamp",
          "type": "uint256"
        }
      ],
      "name": "Sanction",
      "type": "event"
    },
    {
      "anonymous": false,
      "inputs": [
        {
          "indexed": true,
          "internalType": "bytes32",
          "name": "userID",
          "type": "bytes32"
        },
        {
          "indexed": true,
          "internalType": "uint32",
          "name": "productionUnitID",
          "type": "uint32"
        },
        {
          "indexed": false,
          "internalType": "uint256",
          "name": "timeStamp",
          "type": "uint256"
        },
        {
          "indexed": false,
          "internalType": "uint8",
          "name": "score",
          "type": "uint8"
        }
      ],
      "name": "Score",
      "type": "event"
    },
    {
      "anonymous": false,
      "inputs": [
        {
          "indexed": true,
          "internalType": "uint32",
          "name": "productionUnitID",
          "type": "uint32"
        },
        {
          "indexed": false,
          "internalType": "uint256",
          "name": "timeStamp",
          "type": "uint256"
        }
      ],
      "name": "UnitRegister",
      "type": "event"
    },
    {
      "anonymous": false,
      "inputs": [
        {
          "indexed": true,
          "internalType": "address",
          "name": "userAddress",
          "type": "address"
        },
        {
          "indexed": false,
          "internalType": "uint256",
          "name": "timeStamp",
          "type": "uint256"
        }
      ],
      "name": "UserRegister",
      "type": "event"
    },
    {
      "anonymous": false,
      "inputs": [
        {
          "indexed": true,
          "internalType": "uint32",
          "name": "productionUnitID",
          "type": "uint32"
        },
        {
          "indexed": false,
          "internalType": "uint256",
          "name": "timeStamp",
          "type": "uint256"
        }
      ],
      "name": "Warn",
      "type": "event"
    },
    {
      "anonymous": false,
      "inputs": [
        {
          "indexed": true,
          "internalType": "uint32",
          "name": "productionUnitID",
          "type": "uint32"
        },
        {
          "indexed": false,
          "internalType": "uint256",
          "name": "timeStamp",
          "type": "uint256"
        }
      ],
      "name": "WarnHandled",
      "type": "event"
    },
    {
      "inputs": [
        {
          "internalType": "uint256",
          "name": "_time",
          "type": "uint256"
        }
      ],
      "name": "generateProductID",
      "outputs": [
        {
          "internalType": "bytes32",
          "name": "",
          "type": "bytes32"
        }
      ],
      "stateMutability": "view",
      "type": "function"
    },
    {
      "inputs": [
        {
          "internalType": "bytes32",
          "name": "productionID",
          "type": "bytes32"
        },
        {
          "internalType": "uint8",
          "name": "_state",
          "type": "uint8"
        }
      ],
      "name": "confirm",
      "outputs": [],
      "stateMutability": "nonpayable",
      "type": "function"
    },
    {
      "inputs": [
        {
          "internalType": "uint32",
          "name": "_productionUnitID",
          "type": "uint32"
        },
        {
          "internalType": "uint8",
          "name": "_score",
          "type": "uint8"
        }
      ],
      "name": "score",
      "outputs": [],
      "stateMutability": "nonpayable",
      "type": "function"
    },
    {
      "inputs": [
        {
          "internalType": "string",
          "name": "_ID",
          "type": "string"
        }
      ],
      "name": "banUser",
      "outputs": [],
      "stateMutability": "nonpayable",
      "type": "function"
    },
    {
      "inputs": [
        {
          "internalType": "uint32",
          "name": "_productionUnitID",
          "type": "uint32"
        }
      ],
      "name": "sanction",
      "outputs": [],
      "stateMutability": "nonpayable",
      "type": "function"
    },
    {
      "inputs": [
        {
          "internalType": "uint32",
          "name": "_productionUnitID",
          "type": "uint32"
        }
      ],
      "name": "unitRecover",
      "outputs": [],
      "stateMutability": "nonpayable",
      "type": "function"
    },
    {
      "inputs": [
        {
          "internalType": "string",
          "name": "_ID",
          "type": "string"
        }
      ],
      "name": "userRecover",
      "outputs": [],
      "stateMutability": "nonpayable",
      "type": "function"
    },
    {
      "inputs": [
        {
          "internalType": "string",
          "name": "_userID",
          "type": "string"
        }
      ],
      "name": "userRegister",
      "outputs": [
        {
          "internalType": "bool",
          "name": "",
          "type": "bool"
        }
      ],
      "stateMutability": "nonpayable",
      "type": "function"
    },
    {
      "inputs": [
        {
          "internalType": "address",
          "name": "_unitAddress",
          "type": "address"
        },
        {
          "internalType": "uint32",
          "name": "_addrCode",
          "type": "uint32"
        },
        {
          "internalType": "string",
          "name": "_name",
          "type": "string"
        }
      ],
      "name": "unitRegister",
      "outputs": [
        {
          "internalType": "uint32",
          "name": "",
          "type": "uint32"
        }
      ],
      "stateMutability": "nonpayable",
      "type": "function"
    },
    {
      "inputs": [
        {
          "internalType": "uint32",
          "name": "_productionUnitID",
          "type": "uint32"
        }
      ],
      "name": "complain",
      "outputs": [],
      "stateMutability": "nonpayable",
      "type": "function"
    },
    {
      "inputs": [
        {
          "internalType": "string",
          "name": "_ID",
          "type": "string"
        },
        {
          "internalType": "uint32",
          "name": "_productionUnitID",
          "type": "uint32"
        },
        {
          "internalType": "uint8",
          "name": "_result",
          "type": "uint8"
        }
      ],
      "name": "HandleComplain",
      "outputs": [],
      "stateMutability": "nonpayable",
      "type": "function"
    },
    {
      "inputs": [
        {
          "internalType": "uint32",
          "name": "_unitID",
          "type": "uint32"
        }
      ],
      "name": "getScore",
      "outputs": [
        {
          "internalType": "uint8",
          "name": "",
          "type": "uint8"
        }
      ],
      "stateMutability": "view",
      "type": "function"
    },
    {
      "inputs": [],
      "name": "getCredit",
      "outputs": [
        {
          "internalType": "uint8",
          "name": "",
          "type": "uint8"
        }
      ],
      "stateMutability": "view",
      "type": "function"
    },
    {
      "inputs": [
        {
          "internalType": "address",
          "name": "_address",
          "type": "address"
        }
      ],
      "name": "getUserRegistered",
      "outputs": [
        {
          "internalType": "bool",
          "name": "",
          "type": "bool"
        }
      ],
      "stateMutability": "view",
      "type": "function"
    },
    {
      "inputs": [],
      "name": "getUserID",
      "outputs": [
        {
          "internalType": "bytes32",
          "name": "",
          "type": "bytes32"
        }
      ],
      "stateMutability": "view",
      "type": "function"
    },
    {
      "inputs": [],
      "name": "getUnitID",
      "outputs": [
        {
          "internalType": "uint32",
          "name": "",
          "type": "uint32"
        }
      ],
      "stateMutability": "view",
      "type": "function"
    }
  ],
  "bytecode": "0x608060405234801561001057600080fd5b5060008060146101000a81548160ff021916908315150217905550336000806101000a81548173ffffffffffffffffffffffffffffffffffffffff021916908373ffffffffffffffffffffffffffffffffffffffff160217905550611ef88061007a6000396000f3fe608060405234801561001057600080fd5b50600436106100ff5760003560e01c8063745f57e211610097578063c3f7299c11610066578063c3f7299c146102a8578063cb3eb567146102c6578063ddb9d64b146102e2578063fa631e0c146102fe576100ff565b8063745f57e214610210578063863682f41461022c578063881d97dc1461025c578063bc1893ac1461028c576100ff565b80632eeb6d7f116100d35780632eeb6d7f1461019c5780634b8fe13d146101ba578063576c63d7146101d657806359296e7b146101f2576100ff565b80628a25fc14610104578063028615ae1461013457806313d41d5c146101645780631e83a09314610180575b600080fd5b61011e600480360381019061011991906117b0565b61032e565b60405161012b91906117f8565b60405180910390f35b61014e60048036038101906101499190611849565b6103af565b60405161015b919061188f565b60405180910390f35b61017e6004803603810190610179919061190f565b610435565b005b61019a6004803603810190610195919061198b565b61056c565b005b6101a4610679565b6040516101b1919061188f565b60405180910390f35b6101d460048036038101906101cf9190611a1d565b6106d9565b005b6101f060048036038101906101eb919061198b565b610852565b005b6101fa610942565b6040516102079190611aa0565b60405180910390f35b61022a6004803603810190610225919061198b565b6109ac565b005b6102466004803603810190610241919061198b565b610b5d565b6040516102539190611aa0565b60405180910390f35b61027660048036038101906102719190611abb565b610b96565b60405161028391906117f8565b60405180910390f35b6102a660048036038101906102a19190611abb565b610dad565b005b6102b0610eb1565b6040516102bd9190611b17565b60405180910390f35b6102e060048036038101906102db9190611abb565b610f08565b005b6102fc60048036038101906102f79190611b32565b611038565b005b61031860048036038101906103139190611b72565b61121a565b6040516103259190611b17565b60405180910390f35b60008060026000600460003373ffffffffffffffffffffffffffffffffffffffff1673ffffffffffffffffffffffffffffffffffffffff16815260200190815260200160002054815260200190815260200160002060010160009054906101000a900460ff1660ff16036103a557600090506103aa565b600190505b919050565b600080600360003373ffffffffffffffffffffffffffffffffffffffff1673ffffffffffffffffffffffffffffffffffffffff16815260200190815260200160002060009054906101000a900463ffffffff1683604051602001610414929190611c3d565b60405160208183030381529060405280519060200120905080915050919050565b600060149054906101000a900460ff161561044f57600080fd5b60016000600360003373ffffffffffffffffffffffffffffffffffffffff1673ffffffffffffffffffffffffffffffffffffffff16815260200190815260200160002060009054906101000a900463ffffffff1663ffffffff1663ffffffff16815260200190815260200160002060000160049054906101000a900460ff16156104d857600080fd5b600360003373ffffffffffffffffffffffffffffffffffffffff1673ffffffffffffffffffffffffffffffffffffffff16815260200190815260200160002060009054906101000a900463ffffffff1663ffffffff16827f2fbf2c5e99aa8d3035c1e48207c3b401ddd6a3ae60d5b6410cbd6743dc9fc3638342604051610560929190611c78565b60405180910390a35050565b600060149054906101000a900460ff161561058657600080fd5b600060026000600460003373ffffffffffffffffffffffffffffffffffffffff1673ffffffffffffffffffffffffffffffffffffffff16815260200190815260200160002054815260200190815260200160002060010160009054906101000a900460ff1660ff16116105f857600080fd5b8063ffffffff16600460003373ffffffffffffffffffffffffffffffffffffffff1673ffffffffffffffffffffffffffffffffffffffff168152602001908152602001600020547f239084da737eefdf0cec8ae51b890fcd37c5f8afede3665c71b647785b64557a4260405161066e9190611ca1565b60405180910390a350565b60008060149054906101000a900460ff161561069457600080fd5b600460003373ffffffffffffffffffffffffffffffffffffffff1673ffffffffffffffffffffffffffffffffffffffff16815260200190815260200160002054905090565b600060149054906101000a900460ff16156106f357600080fd5b60008054906101000a900473ffffffffffffffffffffffffffffffffffffffff1673ffffffffffffffffffffffffffffffffffffffff163373ffffffffffffffffffffffffffffffffffffffff161461074b57600080fd5b600061079a85858080601f016020809104026020016040519081016040528093929190818152602001838380828437600081840152601f19601f820116905080830192505050505050506114dd565b905060018260ff16036107ad575061084c565b60008260ff16036108005760018060008563ffffffff1663ffffffff16815260200190815260200160002060000160046101000a81548160ff0219169083151502179055506107fb816114eb565b61080a565b6108098161156a565b5b8263ffffffff167f65553ca69f6f527bb343f30a08be75ca19101f31f67a4572437252fa42c7231d4284604051610842929190611cbc565b60405180910390a2505b50505050565b600060149054906101000a900460ff161561086c57600080fd5b60008054906101000a900473ffffffffffffffffffffffffffffffffffffffff1673ffffffffffffffffffffffffffffffffffffffff163373ffffffffffffffffffffffffffffffffffffffff16146108c457600080fd5b60011515600160008363ffffffff1663ffffffff16815260200190815260200160002060000160049054906101000a900460ff1615151461090457600080fd5b6000600160008363ffffffff1663ffffffff16815260200190815260200160002060000160046101000a81548160ff02191690831515021790555050565b600060026000600460003373ffffffffffffffffffffffffffffffffffffffff1673ffffffffffffffffffffffffffffffffffffffff16815260200190815260200160002054815260200190815260200160002060010160009054906101000a900460ff16905090565b600060149054906101000a900460ff16156109c657600080fd5b60008054906101000a900473ffffffffffffffffffffffffffffffffffffffff1673ffffffffffffffffffffffffffffffffffffffff163373ffffffffffffffffffffffffffffffffffffffff1614610a1e57600080fd5b60018060008363ffffffff1663ffffffff16815260200190815260200160002060000160046101000a81548160ff0219169083151502179055506000600160008363ffffffff1663ffffffff16815260200190815260200160002060000160056101000a81548160ff021916908360ff1602179055506000600160008363ffffffff1663ffffffff16815260200190815260200160002060020160006101000a81548161ffff021916908361ffff1602179055506000600160008363ffffffff1663ffffffff16815260200190815260200160002060020160026101000a81548167ffffffffffffffff021916908367ffffffffffffffff1602179055508063ffffffff167fe6d57c7cbfc1ace4fecce7e762aee1bb0183e1d376aa1eeaab48cc4ec0170e1442604051610b529190611ca1565b60405180910390a250565b6000600160008363ffffffff1663ffffffff16815260200190815260200160002060000160059054906101000a900460ff169050919050565b600080610be684848080601f016020809104026020016040519081016040528093929190818152602001838380828437600081840152601f19601f820116905080830192505050505050506114dd565b90506005600082815260200190815260200160002060009054906101000a900460ff1680610c7a5750600060026000600460003373ffffffffffffffffffffffffffffffffffffffff1673ffffffffffffffffffffffffffffffffffffffff16815260200190815260200160002054815260200190815260200160002060010160009054906101000a900460ff1660ff1614155b15610c89576000915050610da7565b60016005600083815260200190815260200160002060006101000a81548160ff02191690831515021790555080600460003373ffffffffffffffffffffffffffffffffffffffff1673ffffffffffffffffffffffffffffffffffffffff168152602001908152602001600020819055506040518060400160405280828152602001600260ff16815250600260008381526020019081526020016000206000820151816000015560208201518160010160006101000a81548160ff021916908360ff1602179055509050503373ffffffffffffffffffffffffffffffffffffffff167fdec4c13f1daa034ca2a06b9cee6c16accc0bd81ad27afacc15604c4f5cea09bb42604051610d999190611ca1565b60405180910390a260019150505b92915050565b600060149054906101000a900460ff1615610dc757600080fd5b60008054906101000a900473ffffffffffffffffffffffffffffffffffffffff1673ffffffffffffffffffffffffffffffffffffffff163373ffffffffffffffffffffffffffffffffffffffff1614610e1f57600080fd5b6000610e6e83838080601f016020809104026020016040519081016040528093929190818152602001838380828437600081840152601f19601f820116905080830192505050505050506114dd565b905060006002600083815260200190815260200160002060010160009054906101000a900460ff1660ff1614610ea357600080fd5b610eac816114eb565b505050565b6000600360003373ffffffffffffffffffffffffffffffffffffffff1673ffffffffffffffffffffffffffffffffffffffff16815260200190815260200160002060009054906101000a900463ffffffff16905090565b600060149054906101000a900460ff1615610f2257600080fd5b60008054906101000a900473ffffffffffffffffffffffffffffffffffffffff1673ffffffffffffffffffffffffffffffffffffffff163373ffffffffffffffffffffffffffffffffffffffff1614610f7a57600080fd5b6000610fc983838080601f016020809104026020016040519081016040528093929190818152602001838380828437600081840152601f19601f820116905080830192505050505050506114dd565b905060006002600083815260200190815260200160002060010160006101000a81548160ff021916908360ff160217905550807f57701639fa7f9eabc45bf6872e7fc0025292333f330933a4d8c392ccdea244f44260405161102b9190611ca1565b60405180910390a2505050565b600060149054906101000a900460ff161561105257600080fd5b600060026000600460003373ffffffffffffffffffffffffffffffffffffffff1673ffffffffffffffffffffffffffffffffffffffff16815260200190815260200160002054815260200190815260200160002060010160009054906101000a900460ff1660ff16116110c457600080fd5b8163ffffffff16600460003373ffffffffffffffffffffffffffffffffffffffff1673ffffffffffffffffffffffffffffffffffffffff168152602001908152602001600020547fc89b0ce400fac9914e991bc93a9345649a02520d3ca69773a5ced6fc8f6d94b5428460405161113c929190611cbc565b60405180910390a38060ff16600160008463ffffffff1663ffffffff16815260200190815260200160002060020160028282829054906101000a900467ffffffffffffffff1661118c9190611d28565b92506101000a81548167ffffffffffffffff021916908367ffffffffffffffff160217905550600160008363ffffffff1663ffffffff168152602001908152602001600020600201600081819054906101000a900461ffff16809291906111f290611d74565b91906101000a81548161ffff021916908361ffff16021790555050611216826115e9565b5050565b60008060149054906101000a900460ff161561123557600080fd5b60008054906101000a900473ffffffffffffffffffffffffffffffffffffffff1673ffffffffffffffffffffffffffffffffffffffff163373ffffffffffffffffffffffffffffffffffffffff161461128d57600080fd5b600660008673ffffffffffffffffffffffffffffffffffffffff1673ffffffffffffffffffffffffffffffffffffffff16815260200190815260200160002060009054906101000a900460ff16156112e457600080fd5b600061133384848080601f016020809104026020016040519081016040528093929190818152602001838380828437600081840152601f19601f820116905080830192505050505050506114dd565b905060006113408661169c565b905080600360008973ffffffffffffffffffffffffffffffffffffffff1673ffffffffffffffffffffffffffffffffffffffff16815260200190815260200160002060006101000a81548163ffffffff021916908363ffffffff1602179055506040518060c001604052808263ffffffff168152602001600015158152602001600060ff168152602001838152602001600061ffff168152602001600067ffffffffffffffff16815250600160008363ffffffff1663ffffffff16815260200190815260200160002060008201518160000160006101000a81548163ffffffff021916908363ffffffff16021790555060208201518160000160046101000a81548160ff02191690831515021790555060408201518160000160056101000a81548160ff021916908360ff1602179055506060820151816001015560808201518160020160006101000a81548161ffff021916908361ffff16021790555060a08201518160020160026101000a81548167ffffffffffffffff021916908367ffffffffffffffff1602179055509050508092505050949350505050565b600060208201519050919050565b60056002600083815260200190815260200160002060010160009054906101000a900460ff1660ff1610156115675760026000828152602001908152602001600020600101600081819054906101000a900460ff168092919061154d90611d9e565b91906101000a81548160ff021916908360ff160217905550505b50565b60006002600083815260200190815260200160002060010160009054906101000a900460ff1660ff1611156115e65760026000828152602001908152602001600020600101600081819054906101000a900460ff16809291906115cc90611dc7565b91906101000a81548160ff021916908360ff160217905550505b50565b600160008263ffffffff1663ffffffff16815260200190815260200160002060020160009054906101000a900461ffff1661ffff16600160008363ffffffff1663ffffffff16815260200190815260200160002060020160029054906101000a900467ffffffffffffffff1661165f9190611e1f565b600160008363ffffffff1663ffffffff16815260200190815260200160002060000160056101000a81548160ff021916908360ff16021790555050565b600080600760008463ffffffff1663ffffffff16815260200190815260200160002060009054906101000a900461ffff1661ffff16600c8463ffffffff16901b6116e69190611e50565b90506001600760008563ffffffff1663ffffffff16815260200190815260200160002060008282829054906101000a900461ffff166117259190611e8a565b92506101000a81548161ffff021916908361ffff16021790555080915050919050565b600080fd5b600080fd5b600073ffffffffffffffffffffffffffffffffffffffff82169050919050565b600061177d82611752565b9050919050565b61178d81611772565b811461179857600080fd5b50565b6000813590506117aa81611784565b92915050565b6000602082840312156117c6576117c5611748565b5b60006117d48482850161179b565b91505092915050565b60008115159050919050565b6117f2816117dd565b82525050565b600060208201905061180d60008301846117e9565b92915050565b6000819050919050565b61182681611813565b811461183157600080fd5b50565b6000813590506118438161181d565b92915050565b60006020828403121561185f5761185e611748565b5b600061186d84828501611834565b91505092915050565b6000819050919050565b61188981611876565b82525050565b60006020820190506118a46000830184611880565b92915050565b6118b381611876565b81146118be57600080fd5b50565b6000813590506118d0816118aa565b92915050565b600060ff82169050919050565b6118ec816118d6565b81146118f757600080fd5b50565b600081359050611909816118e3565b92915050565b6000806040838503121561192657611925611748565b5b6000611934858286016118c1565b9250506020611945858286016118fa565b9150509250929050565b600063ffffffff82169050919050565b6119688161194f565b811461197357600080fd5b50565b6000813590506119858161195f565b92915050565b6000602082840312156119a1576119a0611748565b5b60006119af84828501611976565b91505092915050565b600080fd5b600080fd5b600080fd5b60008083601f8401126119dd576119dc6119b8565b5b8235905067ffffffffffffffff8111156119fa576119f96119bd565b5b602083019150836001820283011115611a1657611a156119c2565b5b9250929050565b60008060008060608587031215611a3757611a36611748565b5b600085013567ffffffffffffffff811115611a5557611a5461174d565b5b611a61878288016119c7565b94509450506020611a7487828801611976565b9250506040611a85878288016118fa565b91505092959194509250565b611a9a816118d6565b82525050565b6000602082019050611ab56000830184611a91565b92915050565b60008060208385031215611ad257611ad1611748565b5b600083013567ffffffffffffffff811115611af057611aef61174d565b5b611afc858286016119c7565b92509250509250929050565b611b118161194f565b82525050565b6000602082019050611b2c6000830184611b08565b92915050565b60008060408385031215611b4957611b48611748565b5b6000611b5785828601611976565b9250506020611b68858286016118fa565b9150509250929050565b60008060008060608587031215611b8c57611b8b611748565b5b6000611b9a8782880161179b565b9450506020611bab87828801611976565b935050604085013567ffffffffffffffff811115611bcc57611bcb61174d565b5b611bd8878288016119c7565b925092505092959194509250565b60008160e01b9050919050565b6000611bfe82611be6565b9050919050565b611c16611c118261194f565b611bf3565b82525050565b6000819050919050565b611c37611c3282611813565b611c1c565b82525050565b6000611c498285611c05565b600482019150611c598284611c26565b6020820191508190509392505050565b611c7281611813565b82525050565b6000604082019050611c8d6000830185611a91565b611c9a6020830184611c69565b9392505050565b6000602082019050611cb66000830184611c69565b92915050565b6000604082019050611cd16000830185611c69565b611cde6020830184611a91565b9392505050565b600067ffffffffffffffff82169050919050565b7f4e487b7100000000000000000000000000000000000000000000000000000000600052601160045260246000fd5b6000611d3382611ce5565b9150611d3e83611ce5565b92508267ffffffffffffffff03821115611d5b57611d5a611cf9565b5b828201905092915050565b600061ffff82169050919050565b6000611d7f82611d66565b915061ffff8203611d9357611d92611cf9565b5b600182019050919050565b6000611da9826118d6565b915060ff8203611dbc57611dbb611cf9565b5b600182019050919050565b6000611dd2826118d6565b915060008203611de557611de4611cf9565b5b600182039050919050565b7f4e487b7100000000000000000000000000000000000000000000000000000000600052601260045260246000fd5b6000611e2a82611ce5565b9150611e3583611ce5565b925082611e4557611e44611df0565b5b828204905092915050565b6000611e5b8261194f565b9150611e668361194f565b92508263ffffffff03821115611e7f57611e7e611cf9565b5b828201905092915050565b6000611e9582611d66565b9150611ea083611d66565b92508261ffff03821115611eb757611eb6611cf9565b5b82820190509291505056fea26469706673582212203aea7cf2fce4bf4a79ef0830acfd7296c978153c20fc804895998b08ce9ba0fb64736f6c634300080d0033",
  "immutableReferences": {},
  "source": "pragma solidity ^0.8.0;\r\nimport \"./Event.sol\";\r\nimport \"./Model.sol\";\r\n\r\ncontract ProductTraceabilitySystem is Event, Model {\r\n    address admin;\r\n    bool closed;\r\n    mapping(uint32 => ProductionUnit) IDToUnit;\r\n    mapping(bytes32 => User) IDToUser;\r\n    mapping(address => uint32) addressToUnitID;\r\n    mapping(address => bytes32) addressToUserID;\r\n    mapping(bytes32 => bool) userRegistered;\r\n    mapping(address => bool) unitRegistered;\r\n    mapping(uint32 => uint16) registerCounter;\r\n\r\n    constructor() {\r\n        closed = false;\r\n        admin = msg.sender;\r\n    }\r\n\r\n    function generateProductID(uint256 _time) public view returns (bytes32) {\r\n        //require(!closed);\r\n        // require(unitRegistered[msg.sender]);\r\n        // require(!IDToUnit[addressToUnitID[msg.sender]].banned);\r\n\r\n        bytes32 ID = keccak256(\r\n            abi.encodePacked(addressToUnitID[msg.sender], _time)\r\n        );\r\n        return ID;\r\n    }\r\n\r\n    function confirm(bytes32 productionID, uint8 _state) public {\r\n        require(!closed);\r\n        require(!IDToUnit[addressToUnitID[msg.sender]].banned);\r\n        //bytes32 _byteProductionID = stringToBytes32(_productionID);\r\n        emit Confirm(\r\n            productionID,\r\n            addressToUnitID[msg.sender],\r\n            _state,\r\n            block.timestamp\r\n        );\r\n    }\r\n\r\n    function stringToBytes32(string memory source)\r\n        internal\r\n        pure\r\n        returns (bytes32 result)\r\n    {\r\n        assembly {\r\n            result := mload(add(source, 32))\r\n        }\r\n    }\r\n\r\n    function score(uint32 _productionUnitID, uint8 _score) public {\r\n        require(!closed);\r\n        require(IDToUser[addressToUserID[msg.sender]].credit > 0);\r\n        emit Score(\r\n            addressToUserID[msg.sender],\r\n            _productionUnitID,\r\n            block.timestamp,\r\n            _score\r\n        );\r\n        IDToUnit[_productionUnitID].scores += _score;\r\n        IDToUnit[_productionUnitID].power++;\r\n        updateScore(_productionUnitID);\r\n    }\r\n\r\n    function updateScore(uint32 _productionUnitID) internal {\r\n        IDToUnit[_productionUnitID].score = uint8(\r\n            IDToUnit[_productionUnitID].scores /\r\n                IDToUnit[_productionUnitID].power\r\n        );\r\n    }\r\n\r\n    function banUser(string calldata _ID) public {\r\n        require(!closed);\r\n        require(msg.sender == admin);\r\n        bytes32 _userID = stringToBytes32(_ID);\r\n        IDToUser[_userID].credit = 0;\r\n        emit Ban(_userID, block.timestamp);\r\n    }\r\n\r\n    function sanction(uint32 _productionUnitID) public {\r\n        require(!closed);\r\n        require(msg.sender == admin);\r\n        IDToUnit[_productionUnitID].banned = true;\r\n        IDToUnit[_productionUnitID].score = 0;\r\n        IDToUnit[_productionUnitID].power = 0;\r\n        IDToUnit[_productionUnitID].scores = 0;\r\n        emit Sanction(_productionUnitID, block.timestamp);\r\n    }\r\n\r\n    function unitRecover(uint32 _productionUnitID) public {\r\n        require(!closed);\r\n        require(msg.sender == admin);\r\n        require(IDToUnit[_productionUnitID].banned == true);\r\n        IDToUnit[_productionUnitID].banned = false;\r\n    }\r\n\r\n    function userRecover(string calldata _ID) public {\r\n        require(!closed);\r\n        require(msg.sender == admin);\r\n        bytes32 _userID = stringToBytes32(_ID);\r\n        require(IDToUser[_userID].credit == 0);\r\n        plusCredit(_userID);\r\n    }\r\n\r\n    function userRegister(string calldata _userID) public returns (bool) {\r\n        bytes32 _ID = stringToBytes32(_userID);\r\n        if (\r\n            userRegistered[_ID] ||\r\n            !(IDToUser[addressToUserID[msg.sender]].credit == 0)\r\n        ) {\r\n            return false;\r\n        }\r\n\r\n        userRegistered[_ID] = true;\r\n        addressToUserID[msg.sender] = _ID;\r\n        IDToUser[_ID] = User({ID: _ID, credit: 2});\r\n        emit UserRegister(msg.sender, block.timestamp);\r\n        return true;\r\n    }\r\n\r\n    function unitRegister(\r\n        address _unitAddress,\r\n        uint32 _addrCode,\r\n        string calldata _name\r\n    ) public returns (uint32) {\r\n        require(!closed);\r\n        require(msg.sender == admin);\r\n        require(!unitRegistered[_unitAddress]);\r\n        bytes32 name = stringToBytes32(_name);\r\n        uint32 _ID = getNewUintID(_addrCode);\r\n        addressToUnitID[_unitAddress] = _ID;\r\n        IDToUnit[_ID] = ProductionUnit({\r\n            ID: _ID,\r\n            name: name,\r\n            banned: false,\r\n            score: 0,\r\n            power: 0,\r\n            scores: 0\r\n        });\r\n        return _ID;\r\n        emit UnitRegister(_ID, block.timestamp);\r\n    }\r\n\r\n    function complain(uint32 _productionUnitID) public {\r\n        require(!closed);\r\n        require(IDToUser[addressToUserID[msg.sender]].credit > 0);\r\n        emit Complaint(\r\n            addressToUserID[msg.sender],\r\n            _productionUnitID,\r\n            block.timestamp\r\n        );\r\n    }\r\n\r\n    function HandleComplain(\r\n        string calldata _ID,\r\n        uint32 _productionUnitID,\r\n        uint8 _result\r\n    ) public {\r\n        require(!closed);\r\n        require(msg.sender == admin);\r\n        bytes32 _userID = stringToBytes32(_ID);\r\n        if (_result == 1) {\r\n            return;\r\n        }\r\n        if (_result == 0) {\r\n            IDToUnit[_productionUnitID].banned = true;\r\n            plusCredit(_userID);\r\n        } else {\r\n            minusCredit(_userID);\r\n        }\r\n        emit ComplaintHandled(_productionUnitID, block.timestamp, _result);\r\n    }\r\n\r\n    function getNewUintID(uint32 _addrCode) internal returns (uint32) {\r\n        uint32 result = (_addrCode << 12) + registerCounter[_addrCode];\r\n        registerCounter[_addrCode] += 1;\r\n        return result;\r\n    }\r\n\r\n    function minusCredit(bytes32 _ID) internal {\r\n        if (IDToUser[_ID].credit > 0) {\r\n            IDToUser[_ID].credit--;\r\n        }\r\n    }\r\n\r\n    function plusCredit(bytes32 _ID) internal {\r\n        if (IDToUser[_ID].credit < 5) {\r\n            IDToUser[_ID].credit++;\r\n        }\r\n    }\r\n\r\n    function getScore(uint32 _unitID) public view returns (uint8) {\r\n        return IDToUnit[_unitID].score;\r\n    }\r\n\r\n    function getCredit() public view returns (uint8) {\r\n        //bytes32 _userID = stringToBytes32(_ID);\r\n        // bytes32 _userID = stringToBytes32(_ID);\r\n        return IDToUser[addressToUserID[msg.sender]].credit;\r\n    }\r\n\r\n    function getUserRegistered(address _address) public view returns (bool) {\r\n        if (IDToUser[addressToUserID[msg.sender]].credit == 0) {\r\n            return false;\r\n        }\r\n        return true;\r\n    }\r\n\r\n    function getUserID() public view returns (bytes32) {\r\n        require(!closed);\r\n        return addressToUserID[msg.sender];\r\n    }\r\n\r\n    function Bytes32ToString(bytes32 b32name)\r\n        internal\r\n        pure\r\n        returns (string memory)\r\n    {\r\n        bytes memory bytesString = new bytes(32);\r\n\r\n        // \r\n        uint256 charCount = 0;\r\n\r\n        // \r\n        for (uint32 i = 0; i < 32; i++) {\r\n            bytes1 char = bytes1(bytes32(uint256(b32name) * 2**(8 * i)));\r\n\r\n            if (char != 0) {\r\n                bytesString[charCount] = char;\r\n                charCount++;\r\n            }\r\n        }\r\n\r\n        // charCount\r\n        bytes memory bytesStringTrimmed = new bytes(charCount);\r\n        for (uint256 i = 0; i < charCount; i++) {\r\n            bytesStringTrimmed[i] = bytesString[i];\r\n        }\r\n\r\n        return string(bytesStringTrimmed);\r\n    }\r\n\r\n    function getUnitID() public view returns (uint32) {\r\n        return addressToUnitID[msg.sender];\r\n    }\r\n}\r\n",
  "sourcePath": "D:\\codes\\ProduceTraceabilitySystem\\contracts\\ProductTraceabilitySystem.sol",
  "compiler": {
    "name": "solc",
    "version": "0.8.13+commit.abaa5c0e.Emscripten.clang"
  },
  "schemaVersion": "3.4.7",
  "updatedAt": "2022-05-07T10:37:17.954Z",
  "devdoc": {
    "kind": "dev",
    "methods": {},
    "version": 1
  },
  "userdoc": {
    "kind": "user",
    "methods": {},
    "version": 1
  }
}