{
  "contractName": "ProductTraceabilitySystem",
  "abi": [
    {
      "inputs": [],
      "stateMutability": "nonpayable",
      "type": "constructor"
    },
    {
      "anonymous": false,
      "inputs": [
        {
          "indexed": true,
          "internalType": "bytes32",
          "name": "userID",
          "type": "bytes32"
        },
        {
          "indexed": false,
          "internalType": "uint256",
          "name": "timeStamp",
          "type": "uint256"
        }
      ],
      "name": "Ban",
      "type": "event"
    },
    {
      "anonymous": false,
      "inputs": [
        {
          "indexed": true,
          "internalType": "bytes32",
          "name": "userID",
          "type": "bytes32"
        },
        {
          "indexed": true,
          "internalType": "uint32",
          "name": "productionUnitID",
          "type": "uint32"
        },
        {
          "indexed": false,
          "internalType": "uint256",
          "name": "timeStamp",
          "type": "uint256"
        }
      ],
      "name": "Complaint",
      "type": "event"
    },
    {
      "anonymous": false,
      "inputs": [
        {
          "indexed": true,
          "internalType": "uint32",
          "name": "productionUnitID",
          "type": "uint32"
        },
        {
          "indexed": false,
          "internalType": "uint256",
          "name": "timeStamp",
          "type": "uint256"
        },
        {
          "indexed": false,
          "internalType": "bool",
          "name": "result",
          "type": "bool"
        }
      ],
      "name": "ComplaintHandled",
      "type": "event"
    },
    {
      "anonymous": false,
      "inputs": [
        {
          "indexed": true,
          "internalType": "bytes32",
          "name": "productionID",
          "type": "bytes32"
        },
        {
          "indexed": true,
          "internalType": "uint32",
          "name": "productionUnitID",
          "type": "uint32"
        },
        {
          "indexed": false,
          "internalType": "uint8",
          "name": "state",
          "type": "uint8"
        },
        {
          "indexed": false,
          "internalType": "uint256",
          "name": "timeStamp",
          "type": "uint256"
        }
      ],
      "name": "Confirm",
      "type": "event"
    },
    {
      "anonymous": false,
      "inputs": [
        {
          "indexed": true,
          "internalType": "uint32",
          "name": "productionUnitID",
          "type": "uint32"
        },
        {
          "indexed": false,
          "internalType": "uint256",
          "name": "timeStamp",
          "type": "uint256"
        }
      ],
      "name": "Sanction",
      "type": "event"
    },
    {
      "anonymous": false,
      "inputs": [
        {
          "indexed": true,
          "internalType": "bytes32",
          "name": "userID",
          "type": "bytes32"
        },
        {
          "indexed": true,
          "internalType": "uint32",
          "name": "productionUnitID",
          "type": "uint32"
        },
        {
          "indexed": false,
          "internalType": "uint256",
          "name": "timeStamp",
          "type": "uint256"
        },
        {
          "indexed": false,
          "internalType": "uint8",
          "name": "score",
          "type": "uint8"
        }
      ],
      "name": "Score",
      "type": "event"
    },
    {
      "anonymous": false,
      "inputs": [
        {
          "indexed": true,
          "internalType": "address",
          "name": "userAddress",
          "type": "address"
        },
        {
          "indexed": false,
          "internalType": "uint256",
          "name": "timeStamp",
          "type": "uint256"
        }
      ],
      "name": "UserRegister",
      "type": "event"
    },
    {
      "anonymous": false,
      "inputs": [
        {
          "indexed": true,
          "internalType": "uint32",
          "name": "productionUnitID",
          "type": "uint32"
        },
        {
          "indexed": false,
          "internalType": "uint256",
          "name": "timeStamp",
          "type": "uint256"
        }
      ],
      "name": "Warn",
      "type": "event"
    },
    {
      "anonymous": false,
      "inputs": [
        {
          "indexed": true,
          "internalType": "uint32",
          "name": "productionUnitID",
          "type": "uint32"
        },
        {
          "indexed": false,
          "internalType": "uint256",
          "name": "timeStamp",
          "type": "uint256"
        }
      ],
      "name": "WarnHandled",
      "type": "event"
    },
    {
      "inputs": [
        {
          "internalType": "uint256",
          "name": "_time",
          "type": "uint256"
        }
      ],
      "name": "generateProductID",
      "outputs": [
        {
          "internalType": "bytes32",
          "name": "",
          "type": "bytes32"
        }
      ],
      "stateMutability": "view",
      "type": "function",
      "constant": true
    },
    {
      "inputs": [
        {
          "internalType": "bytes32",
          "name": "productionID",
          "type": "bytes32"
        },
        {
          "internalType": "uint8",
          "name": "_state",
          "type": "uint8"
        }
      ],
      "name": "confirm",
      "outputs": [],
      "stateMutability": "nonpayable",
      "type": "function"
    },
    {
      "inputs": [
        {
          "internalType": "uint32",
          "name": "_productionUnitID",
          "type": "uint32"
        },
        {
          "internalType": "uint8",
          "name": "_score",
          "type": "uint8"
        }
      ],
      "name": "score",
      "outputs": [],
      "stateMutability": "nonpayable",
      "type": "function"
    },
    {
      "inputs": [
        {
          "internalType": "bytes32",
          "name": "_userID",
          "type": "bytes32"
        }
      ],
      "name": "banUser",
      "outputs": [],
      "stateMutability": "nonpayable",
      "type": "function"
    },
    {
      "inputs": [
        {
          "internalType": "uint32",
          "name": "_productionUnitID",
          "type": "uint32"
        }
      ],
      "name": "sanction",
      "outputs": [],
      "stateMutability": "nonpayable",
      "type": "function"
    },
    {
      "inputs": [
        {
          "internalType": "uint32",
          "name": "_productionUnitID",
          "type": "uint32"
        }
      ],
      "name": "unitRecover",
      "outputs": [],
      "stateMutability": "nonpayable",
      "type": "function"
    },
    {
      "inputs": [
        {
          "internalType": "string",
          "name": "_userID",
          "type": "string"
        }
      ],
      "name": "userRegister",
      "outputs": [
        {
          "internalType": "bool",
          "name": "",
          "type": "bool"
        }
      ],
      "stateMutability": "nonpayable",
      "type": "function"
    },
    {
      "inputs": [
        {
          "internalType": "address",
          "name": "_unitAddress",
          "type": "address"
        },
        {
          "internalType": "uint32",
          "name": "_addrCode",
          "type": "uint32"
        },
        {
          "internalType": "string",
          "name": "_name",
          "type": "string"
        }
      ],
      "name": "unitRegister",
      "outputs": [
        {
          "internalType": "uint32",
          "name": "",
          "type": "uint32"
        }
      ],
      "stateMutability": "nonpayable",
      "type": "function"
    },
    {
      "inputs": [
        {
          "internalType": "uint32",
          "name": "_productionUnitID",
          "type": "uint32"
        }
      ],
      "name": "complain",
      "outputs": [],
      "stateMutability": "nonpayable",
      "type": "function"
    },
    {
      "inputs": [
        {
          "internalType": "string",
          "name": "_userID",
          "type": "string"
        },
        {
          "internalType": "uint32",
          "name": "_productionUnitID",
          "type": "uint32"
        },
        {
          "internalType": "uint8",
          "name": "_result",
          "type": "uint8"
        }
      ],
      "name": "HandleComplain",
      "outputs": [],
      "stateMutability": "nonpayable",
      "type": "function"
    },
    {
      "inputs": [
        {
          "internalType": "uint32",
          "name": "_unitID",
          "type": "uint32"
        }
      ],
      "name": "getScore",
      "outputs": [
        {
          "internalType": "uint8",
          "name": "",
          "type": "uint8"
        }
      ],
      "stateMutability": "view",
      "type": "function",
      "constant": true
    },
    {
      "inputs": [
        {
          "internalType": "string",
          "name": "_ID",
          "type": "string"
        }
      ],
      "name": "getCredit",
      "outputs": [
        {
          "internalType": "uint8",
          "name": "",
          "type": "uint8"
        }
      ],
      "stateMutability": "view",
      "type": "function",
      "constant": true
    },
    {
      "inputs": [
        {
          "internalType": "address",
          "name": "_address",
          "type": "address"
        }
      ],
      "name": "getUserRegistered",
      "outputs": [
        {
          "internalType": "bool",
          "name": "",
          "type": "bool"
        }
      ],
      "stateMutability": "view",
      "type": "function",
      "constant": true
    },
    {
      "inputs": [],
      "name": "getUserID",
      "outputs": [
        {
          "internalType": "bytes32",
          "name": "",
          "type": "bytes32"
        }
      ],
      "stateMutability": "view",
      "type": "function",
      "constant": true
    },
    {
      "inputs": [],
      "name": "getUnitID",
      "outputs": [
        {
          "internalType": "uint32",
          "name": "",
          "type": "uint32"
        }
      ],
      "stateMutability": "view",
      "type": "function",
      "constant": true
    }
  ],
  "bytecode": "0x608060405234801561001057600080fd5b5060008060146101000a81548160ff021916908315150217905550336000806101000a81548173ffffffffffffffffffffffffffffffffffffffff021916908373ffffffffffffffffffffffffffffffffffffffff160217905550611ddf8061007a6000396000f3fe608060405234801561001057600080fd5b50600436106100f45760003560e01c8063745f57e211610097578063ddb9d64b11610066578063ddb9d64b14610281578063f7522cba1461029d578063fa631e0c146102cd578063fd5216c8146102fd576100f4565b8063745f57e2146101e7578063863682f414610203578063881d97dc14610233578063c3f7299c14610263576100f4565b80631e83a093116100d35780631e83a093146101755780632eeb6d7f146101915780634b8fe13d146101af578063576c63d7146101cb576100f4565b80628a25fc146100f9578063028615ae1461012957806313d41d5c14610159575b600080fd5b610113600480360381019061010e919061166a565b610319565b60405161012091906116b2565b60405180910390f35b610143600480360381019061013e9190611703565b61039a565b6040516101509190611749565b60405180910390f35b610173600480360381019061016e91906117c9565b610420565b005b61018f600480360381019061018a9190611845565b610557565b005b610199610664565b6040516101a69190611749565b60405180910390f35b6101c960048036038101906101c491906118d7565b6106c4565b005b6101e560048036038101906101e09190611845565b6107a8565b005b61020160048036038101906101fc9190611845565b610898565b005b61021d60048036038101906102189190611845565b610a49565b60405161022a919061195a565b60405180910390f35b61024d60048036038101906102489190611975565b610a82565b60405161025a91906116b2565b60405180910390f35b61026b610c99565b60405161027891906119d1565b60405180910390f35b61029b600480360381019061029691906119ec565b610cf0565b005b6102b760048036038101906102b29190611975565b610ed2565b6040516102c4919061195a565b60405180910390f35b6102e760048036038101906102e29190611a2c565b610f51565b6040516102f491906119d1565b60405180910390f35b61031760048036038101906103129190611aa0565b611214565b005b60008060026000600460003373ffffffffffffffffffffffffffffffffffffffff1673ffffffffffffffffffffffffffffffffffffffff16815260200190815260200160002054815260200190815260200160002060010160009054906101000a900460ff1660ff16036103905760009050610395565b600190505b919050565b600080600360003373ffffffffffffffffffffffffffffffffffffffff1673ffffffffffffffffffffffffffffffffffffffff16815260200190815260200160002060009054906101000a900463ffffffff16836040516020016103ff929190611b24565b60405160208183030381529060405280519060200120905080915050919050565b600060149054906101000a900460ff161561043a57600080fd5b60016000600360003373ffffffffffffffffffffffffffffffffffffffff1673ffffffffffffffffffffffffffffffffffffffff16815260200190815260200160002060009054906101000a900463ffffffff1663ffffffff1663ffffffff16815260200190815260200160002060000160049054906101000a900460ff16156104c357600080fd5b600360003373ffffffffffffffffffffffffffffffffffffffff1673ffffffffffffffffffffffffffffffffffffffff16815260200190815260200160002060009054906101000a900463ffffffff1663ffffffff16827f2fbf2c5e99aa8d3035c1e48207c3b401ddd6a3ae60d5b6410cbd6743dc9fc363834260405161054b929190611b5f565b60405180910390a35050565b600060149054906101000a900460ff161561057157600080fd5b600060026000600460003373ffffffffffffffffffffffffffffffffffffffff1673ffffffffffffffffffffffffffffffffffffffff16815260200190815260200160002054815260200190815260200160002060010160009054906101000a900460ff1660ff16116105e357600080fd5b8063ffffffff16600460003373ffffffffffffffffffffffffffffffffffffffff1673ffffffffffffffffffffffffffffffffffffffff168152602001908152602001600020547f239084da737eefdf0cec8ae51b890fcd37c5f8afede3665c71b647785b64557a426040516106599190611b88565b60405180910390a350565b60008060149054906101000a900460ff161561067f57600080fd5b600460003373ffffffffffffffffffffffffffffffffffffffff1673ffffffffffffffffffffffffffffffffffffffff16815260200190815260200160002054905090565b600060149054906101000a900460ff16156106de57600080fd5b60008054906101000a900473ffffffffffffffffffffffffffffffffffffffff1673ffffffffffffffffffffffffffffffffffffffff163373ffffffffffffffffffffffffffffffffffffffff161461073657600080fd5b60018160ff1603156107a25760008160ff16036107965760018060008463ffffffff1663ffffffff16815260200190815260200160002060000160046101000a81548160ff02191690831515021790555061079184846112f1565b6107a1565b6107a084846113c3565b5b5b50505050565b600060149054906101000a900460ff16156107c257600080fd5b60008054906101000a900473ffffffffffffffffffffffffffffffffffffffff1673ffffffffffffffffffffffffffffffffffffffff163373ffffffffffffffffffffffffffffffffffffffff161461081a57600080fd5b60011515600160008363ffffffff1663ffffffff16815260200190815260200160002060000160049054906101000a900460ff1615151461085a57600080fd5b6000600160008363ffffffff1663ffffffff16815260200190815260200160002060000160046101000a81548160ff02191690831515021790555050565b600060149054906101000a900460ff16156108b257600080fd5b60008054906101000a900473ffffffffffffffffffffffffffffffffffffffff1673ffffffffffffffffffffffffffffffffffffffff163373ffffffffffffffffffffffffffffffffffffffff161461090a57600080fd5b60018060008363ffffffff1663ffffffff16815260200190815260200160002060000160046101000a81548160ff0219169083151502179055506000600160008363ffffffff1663ffffffff16815260200190815260200160002060000160056101000a81548160ff021916908360ff1602179055506000600160008363ffffffff1663ffffffff16815260200190815260200160002060020160006101000a81548161ffff021916908361ffff1602179055506000600160008363ffffffff1663ffffffff16815260200190815260200160002060020160026101000a81548167ffffffffffffffff021916908367ffffffffffffffff1602179055508063ffffffff167fe6d57c7cbfc1ace4fecce7e762aee1bb0183e1d376aa1eeaab48cc4ec0170e1442604051610a3e9190611b88565b60405180910390a250565b6000600160008363ffffffff1663ffffffff16815260200190815260200160002060000160059054906101000a900460ff169050919050565b600080610ad284848080601f016020809104026020016040519081016040528093929190818152602001838380828437600081840152601f19601f82011690508083019250505050505050611495565b90506005600082815260200190815260200160002060009054906101000a900460ff1680610b665750600060026000600460003373ffffffffffffffffffffffffffffffffffffffff1673ffffffffffffffffffffffffffffffffffffffff16815260200190815260200160002054815260200190815260200160002060010160009054906101000a900460ff1660ff1614155b15610b75576000915050610c93565b60016005600083815260200190815260200160002060006101000a81548160ff02191690831515021790555080600460003373ffffffffffffffffffffffffffffffffffffffff1673ffffffffffffffffffffffffffffffffffffffff168152602001908152602001600020819055506040518060400160405280828152602001600260ff16815250600260008381526020019081526020016000206000820151816000015560208201518160010160006101000a81548160ff021916908360ff1602179055509050503373ffffffffffffffffffffffffffffffffffffffff167fdec4c13f1daa034ca2a06b9cee6c16accc0bd81ad27afacc15604c4f5cea09bb42604051610c859190611b88565b60405180910390a260019150505b92915050565b6000600360003373ffffffffffffffffffffffffffffffffffffffff1673ffffffffffffffffffffffffffffffffffffffff16815260200190815260200160002060009054906101000a900463ffffffff16905090565b600060149054906101000a900460ff1615610d0a57600080fd5b600060026000600460003373ffffffffffffffffffffffffffffffffffffffff1673ffffffffffffffffffffffffffffffffffffffff16815260200190815260200160002054815260200190815260200160002060010160009054906101000a900460ff1660ff1611610d7c57600080fd5b8163ffffffff16600460003373ffffffffffffffffffffffffffffffffffffffff1673ffffffffffffffffffffffffffffffffffffffff168152602001908152602001600020547fc89b0ce400fac9914e991bc93a9345649a02520d3ca69773a5ced6fc8f6d94b54284604051610df4929190611ba3565b60405180910390a38060ff16600160008463ffffffff1663ffffffff16815260200190815260200160002060020160028282829054906101000a900467ffffffffffffffff16610e449190611c0f565b92506101000a81548167ffffffffffffffff021916908367ffffffffffffffff160217905550600160008363ffffffff1663ffffffff168152602001908152602001600020600201600081819054906101000a900461ffff1680929190610eaa90611c5b565b91906101000a81548161ffff021916908361ffff16021790555050610ece826114a3565b5050565b600080610f2284848080601f016020809104026020016040519081016040528093929190818152602001838380828437600081840152601f19601f82011690508083019250505050505050611495565b90506002600082815260200190815260200160002060010160009054906101000a900460ff1691505092915050565b60008060149054906101000a900460ff1615610f6c57600080fd5b60008054906101000a900473ffffffffffffffffffffffffffffffffffffffff1673ffffffffffffffffffffffffffffffffffffffff163373ffffffffffffffffffffffffffffffffffffffff1614610fc457600080fd5b600660008673ffffffffffffffffffffffffffffffffffffffff1673ffffffffffffffffffffffffffffffffffffffff16815260200190815260200160002060009054906101000a900460ff161561101b57600080fd5b600061106a84848080601f016020809104026020016040519081016040528093929190818152602001838380828437600081840152601f19601f82011690508083019250505050505050611495565b9050600061107786611556565b905080600360008973ffffffffffffffffffffffffffffffffffffffff1673ffffffffffffffffffffffffffffffffffffffff16815260200190815260200160002060006101000a81548163ffffffff021916908363ffffffff1602179055506040518060c001604052808263ffffffff168152602001600015158152602001600060ff168152602001838152602001600061ffff168152602001600067ffffffffffffffff16815250600160008363ffffffff1663ffffffff16815260200190815260200160002060008201518160000160006101000a81548163ffffffff021916908363ffffffff16021790555060208201518160000160046101000a81548160ff02191690831515021790555060408201518160000160056101000a81548160ff021916908360ff1602179055506060820151816001015560808201518160020160006101000a81548161ffff021916908361ffff16021790555060a08201518160020160026101000a81548167ffffffffffffffff021916908367ffffffffffffffff1602179055509050508092505050949350505050565b600060149054906101000a900460ff161561122e57600080fd5b60008054906101000a900473ffffffffffffffffffffffffffffffffffffffff1673ffffffffffffffffffffffffffffffffffffffff163373ffffffffffffffffffffffffffffffffffffffff161461128657600080fd5b60006002600083815260200190815260200160002060010160006101000a81548160ff021916908360ff160217905550807f57701639fa7f9eabc45bf6872e7fc0025292333f330933a4d8c392ccdea244f4426040516112e69190611b88565b60405180910390a250565b600061134083838080601f016020809104026020016040519081016040528093929190818152602001838380828437600081840152601f19601f82011690508083019250505050505050611495565b905060056002600083815260200190815260200160002060010160009054906101000a900460ff1660ff1610156113be5760026000828152602001908152602001600020600101600081819054906101000a900460ff16809291906113a490611c85565b91906101000a81548160ff021916908360ff160217905550505b505050565b600061141283838080601f016020809104026020016040519081016040528093929190818152602001838380828437600081840152601f19601f82011690508083019250505050505050611495565b905060006002600083815260200190815260200160002060010160009054906101000a900460ff1660ff1611156114905760026000828152602001908152602001600020600101600081819054906101000a900460ff168092919061147690611cae565b91906101000a81548160ff021916908360ff160217905550505b505050565b600060208201519050919050565b600160008263ffffffff1663ffffffff16815260200190815260200160002060020160009054906101000a900461ffff1661ffff16600160008363ffffffff1663ffffffff16815260200190815260200160002060020160029054906101000a900467ffffffffffffffff166115199190611d06565b600160008363ffffffff1663ffffffff16815260200190815260200160002060000160056101000a81548160ff021916908360ff16021790555050565b600080600760008463ffffffff1663ffffffff16815260200190815260200160002060009054906101000a900461ffff1661ffff16600c8463ffffffff16901b6115a09190611d37565b90506001600760008563ffffffff1663ffffffff16815260200190815260200160002060008282829054906101000a900461ffff166115df9190611d71565b92506101000a81548161ffff021916908361ffff16021790555080915050919050565b600080fd5b600080fd5b600073ffffffffffffffffffffffffffffffffffffffff82169050919050565b60006116378261160c565b9050919050565b6116478161162c565b811461165257600080fd5b50565b6000813590506116648161163e565b92915050565b6000602082840312156116805761167f611602565b5b600061168e84828501611655565b91505092915050565b60008115159050919050565b6116ac81611697565b82525050565b60006020820190506116c760008301846116a3565b92915050565b6000819050919050565b6116e0816116cd565b81146116eb57600080fd5b50565b6000813590506116fd816116d7565b92915050565b60006020828403121561171957611718611602565b5b6000611727848285016116ee565b91505092915050565b6000819050919050565b61174381611730565b82525050565b600060208201905061175e600083018461173a565b92915050565b61176d81611730565b811461177857600080fd5b50565b60008135905061178a81611764565b92915050565b600060ff82169050919050565b6117a681611790565b81146117b157600080fd5b50565b6000813590506117c38161179d565b92915050565b600080604083850312156117e0576117df611602565b5b60006117ee8582860161177b565b92505060206117ff858286016117b4565b9150509250929050565b600063ffffffff82169050919050565b61182281611809565b811461182d57600080fd5b50565b60008135905061183f81611819565b92915050565b60006020828403121561185b5761185a611602565b5b600061186984828501611830565b91505092915050565b600080fd5b600080fd5b600080fd5b60008083601f84011261189757611896611872565b5b8235905067ffffffffffffffff8111156118b4576118b3611877565b5b6020830191508360018202830111156118d0576118cf61187c565b5b9250929050565b600080600080606085870312156118f1576118f0611602565b5b600085013567ffffffffffffffff81111561190f5761190e611607565b5b61191b87828801611881565b9450945050602061192e87828801611830565b925050604061193f878288016117b4565b91505092959194509250565b61195481611790565b82525050565b600060208201905061196f600083018461194b565b92915050565b6000806020838503121561198c5761198b611602565b5b600083013567ffffffffffffffff8111156119aa576119a9611607565b5b6119b685828601611881565b92509250509250929050565b6119cb81611809565b82525050565b60006020820190506119e660008301846119c2565b92915050565b60008060408385031215611a0357611a02611602565b5b6000611a1185828601611830565b9250506020611a22858286016117b4565b9150509250929050565b60008060008060608587031215611a4657611a45611602565b5b6000611a5487828801611655565b9450506020611a6587828801611830565b935050604085013567ffffffffffffffff811115611a8657611a85611607565b5b611a9287828801611881565b925092505092959194509250565b600060208284031215611ab657611ab5611602565b5b6000611ac48482850161177b565b91505092915050565b60008160e01b9050919050565b6000611ae582611acd565b9050919050565b611afd611af882611809565b611ada565b82525050565b6000819050919050565b611b1e611b19826116cd565b611b03565b82525050565b6000611b308285611aec565b600482019150611b408284611b0d565b6020820191508190509392505050565b611b59816116cd565b82525050565b6000604082019050611b74600083018561194b565b611b816020830184611b50565b9392505050565b6000602082019050611b9d6000830184611b50565b92915050565b6000604082019050611bb86000830185611b50565b611bc5602083018461194b565b9392505050565b600067ffffffffffffffff82169050919050565b7f4e487b7100000000000000000000000000000000000000000000000000000000600052601160045260246000fd5b6000611c1a82611bcc565b9150611c2583611bcc565b92508267ffffffffffffffff03821115611c4257611c41611be0565b5b828201905092915050565b600061ffff82169050919050565b6000611c6682611c4d565b915061ffff8203611c7a57611c79611be0565b5b600182019050919050565b6000611c9082611790565b915060ff8203611ca357611ca2611be0565b5b600182019050919050565b6000611cb982611790565b915060008203611ccc57611ccb611be0565b5b600182039050919050565b7f4e487b7100000000000000000000000000000000000000000000000000000000600052601260045260246000fd5b6000611d1182611bcc565b9150611d1c83611bcc565b925082611d2c57611d2b611cd7565b5b828204905092915050565b6000611d4282611809565b9150611d4d83611809565b92508263ffffffff03821115611d6657611d65611be0565b5b828201905092915050565b6000611d7c82611c4d565b9150611d8783611c4d565b92508261ffff03821115611d9e57611d9d611be0565b5b82820190509291505056fea264697066735822122066614a5b394da8717783ce2758e2a323507407d81f349d7752b714f583ad161f64736f6c634300080d0033",
  "immutableReferences": {},
  "source": "pragma solidity ^0.8.0;\r\nimport \"./Event.sol\";\r\nimport \"./Model.sol\";\r\n\r\ncontract ProductTraceabilitySystem is Event, Model {\r\n    address admin;\r\n    bool closed;\r\n    mapping(uint32 => ProductionUnit) IDToUnit;\r\n    mapping(bytes32 => User) IDToUser;\r\n    mapping(address => uint32) addressToUnitID;\r\n    mapping(address => bytes32) addressToUserID;\r\n    mapping(bytes32 => bool) userRegistered;\r\n    mapping(address => bool) unitRegistered;\r\n    mapping(uint32 => uint16) registerCounter;\r\n\r\n    constructor() {\r\n        closed = false;\r\n        admin = msg.sender;\r\n    }\r\n\r\n    function generateProductID(uint256 _time) public view returns (bytes32) {\r\n        //require(!closed);\r\n        // require(unitRegistered[msg.sender]);\r\n        // require(!IDToUnit[addressToUnitID[msg.sender]].banned);\r\n\r\n        bytes32 ID = keccak256(\r\n            abi.encodePacked(addressToUnitID[msg.sender], _time)\r\n        );\r\n        return ID;\r\n    }\r\n\r\n    function confirm(bytes32 productionID, uint8 _state) public {\r\n        require(!closed);\r\n        require(!IDToUnit[addressToUnitID[msg.sender]].banned);\r\n        //bytes32 _byteProductionID = stringToBytes32(_productionID);\r\n        emit Confirm(\r\n            productionID,\r\n            addressToUnitID[msg.sender],\r\n            _state,\r\n            block.timestamp\r\n        );\r\n    }\r\n\r\n    function stringToBytes32(string memory source)\r\n        internal\r\n        pure\r\n        returns (bytes32 result)\r\n    {\r\n        assembly {\r\n            result := mload(add(source, 32))\r\n        }\r\n    }\r\n\r\n    function score(uint32 _productionUnitID, uint8 _score) public {\r\n        require(!closed);\r\n        require(IDToUser[addressToUserID[msg.sender]].credit > 0);\r\n        emit Score(\r\n            addressToUserID[msg.sender],\r\n            _productionUnitID,\r\n            block.timestamp,\r\n            _score\r\n        );\r\n        IDToUnit[_productionUnitID].scores += _score;\r\n        IDToUnit[_productionUnitID].power++;\r\n        updateScore(_productionUnitID);\r\n    }\r\n\r\n    function updateScore(uint32 _productionUnitID) internal {\r\n        IDToUnit[_productionUnitID].score = uint8(\r\n            IDToUnit[_productionUnitID].scores /\r\n                IDToUnit[_productionUnitID].power\r\n        );\r\n    }\r\n\r\n    function banUser(bytes32 _userID) public {\r\n        require(!closed);\r\n        require(msg.sender == admin);\r\n        IDToUser[_userID].credit = 0;\r\n        emit Ban(_userID, block.timestamp);\r\n    }\r\n\r\n    function sanction(uint32 _productionUnitID) public {\r\n        require(!closed);\r\n        require(msg.sender == admin);\r\n        IDToUnit[_productionUnitID].banned = true;\r\n        IDToUnit[_productionUnitID].score = 0;\r\n        IDToUnit[_productionUnitID].power = 0;\r\n        IDToUnit[_productionUnitID].scores = 0;\r\n        emit Sanction(_productionUnitID, block.timestamp);\r\n    }\r\n\r\n    function unitRecover(uint32 _productionUnitID) public {\r\n        require(!closed);\r\n        require(msg.sender == admin);\r\n        require(IDToUnit[_productionUnitID].banned == true);\r\n        IDToUnit[_productionUnitID].banned = false;\r\n    }\r\n\r\n    function userRegister(string calldata _userID) public returns (bool) {\r\n        bytes32 _ID = stringToBytes32(_userID);\r\n        if (\r\n            userRegistered[_ID] ||\r\n            !(IDToUser[addressToUserID[msg.sender]].credit == 0)\r\n        ) {\r\n            return false;\r\n        }\r\n\r\n        userRegistered[_ID] = true;\r\n        addressToUserID[msg.sender] = _ID;\r\n        IDToUser[_ID] = User({ID: _ID, credit: 2});\r\n        emit UserRegister(msg.sender, block.timestamp);\r\n        return true;\r\n    }\r\n\r\n    function unitRegister(\r\n        address _unitAddress,\r\n        uint32 _addrCode,\r\n        string calldata _name\r\n    ) public returns (uint32) {\r\n        require(!closed);\r\n        require(msg.sender == admin);\r\n        require(!unitRegistered[_unitAddress]);\r\n        bytes32 name = stringToBytes32(_name);\r\n        uint32 _ID = getNewUintID(_addrCode);\r\n        addressToUnitID[_unitAddress] = _ID;\r\n        IDToUnit[_ID] = ProductionUnit({\r\n            ID: _ID,\r\n            name: name,\r\n            banned: false,\r\n            score: 0,\r\n            power: 0,\r\n            scores: 0\r\n        });\r\n        return _ID;\r\n    }\r\n\r\n    function complain(uint32 _productionUnitID) public {\r\n        require(!closed);\r\n        require(IDToUser[addressToUserID[msg.sender]].credit > 0);\r\n        emit Complaint(\r\n            addressToUserID[msg.sender],\r\n            _productionUnitID,\r\n            block.timestamp\r\n        );\r\n    }\r\n\r\n    function HandleComplain(\r\n        string calldata _userID,\r\n        uint32 _productionUnitID,\r\n        uint8 _result\r\n    ) public {\r\n        require(!closed);\r\n        require(msg.sender == admin);\r\n        if (_result == 1) {\r\n            return;\r\n        }\r\n        if (_result == 0) {\r\n            IDToUnit[_productionUnitID].banned = true;\r\n            plusCredit(_userID);\r\n        } else {\r\n            minusCredit(_userID);\r\n        }\r\n    }\r\n\r\n    function getNewUintID(uint32 _addrCode) internal returns (uint32) {\r\n        uint32 result = (_addrCode << 12) + registerCounter[_addrCode];\r\n        registerCounter[_addrCode] += 1;\r\n        return result;\r\n    }\r\n\r\n    function minusCredit(string calldata _ID) internal {\r\n        bytes32 _userID = stringToBytes32(_ID);\r\n        if (IDToUser[_userID].credit > 0) {\r\n            IDToUser[_userID].credit--;\r\n        }\r\n    }\r\n\r\n    function plusCredit(string calldata _ID) internal {\r\n        bytes32 _userID = stringToBytes32(_ID);\r\n        if (IDToUser[_userID].credit < 5) {\r\n            IDToUser[_userID].credit++;\r\n        }\r\n    }\r\n\r\n    function getScore(uint32 _unitID) public view returns (uint8) {\r\n        return IDToUnit[_unitID].score;\r\n    }\r\n\r\n    function getCredit(string calldata _ID) public view returns (uint8) {\r\n        bytes32 _userID = stringToBytes32(_ID);\r\n        return IDToUser[_userID].credit;\r\n    }\r\n\r\n    function getUserRegistered(address _address) public view returns (bool) {\r\n        if (IDToUser[addressToUserID[msg.sender]].credit == 0) {\r\n            return false;\r\n        }\r\n        return true;\r\n    }\r\n\r\n    function getUserID() public view returns (bytes32) {\r\n        require(!closed);\r\n        return addressToUserID[msg.sender];\r\n    }\r\n\r\n    function Bytes32ToString(bytes32 b32name)\r\n        internal\r\n        pure\r\n        returns (string memory)\r\n    {\r\n        bytes memory bytesString = new bytes(32);\r\n\r\n        // \r\n        uint256 charCount = 0;\r\n\r\n        // \r\n        for (uint32 i = 0; i < 32; i++) {\r\n            bytes1 char = bytes1(bytes32(uint256(b32name) * 2**(8 * i))); // b32namei,\r\n            // 0\r\n            // *2\r\n\r\n            if (char != 0) {\r\n                bytesString[charCount] = char;\r\n                charCount++;\r\n            }\r\n        }\r\n\r\n        // charCount\r\n        bytes memory bytesStringTrimmed = new bytes(charCount);\r\n        for (uint256 i = 0; i < charCount; i++) {\r\n            bytesStringTrimmed[i] = bytesString[i];\r\n        }\r\n\r\n        return string(bytesStringTrimmed);\r\n    }\r\n\r\n    function getUnitID() public view returns (uint32) {\r\n        return addressToUnitID[msg.sender];\r\n    }\r\n}\r\n",
  "sourcePath": "D:\\codes\\ProduceTraceabilitySystem\\contracts\\ProductTraceabilitySystem.sol",
  "compiler": {
    "name": "solc",
    "version": "0.8.13+commit.abaa5c0e.Emscripten.clang"
  },
  "schemaVersion": "3.4.7",
  "updatedAt": "2022-05-05T17:42:00.713Z",
  "networkType": "ethereum",
  "devdoc": {
    "kind": "dev",
    "methods": {},
    "version": 1
  },
  "userdoc": {
    "kind": "user",
    "methods": {},
    "version": 1
  }
}