{
  "contractName": "ProductTraceabilitySystem",
  "abi": [
    {
      "inputs": [],
      "stateMutability": "nonpayable",
      "type": "constructor"
    },
    {
      "anonymous": false,
      "inputs": [
        {
          "indexed": true,
          "internalType": "bytes32",
          "name": "userID",
          "type": "bytes32"
        },
        {
          "indexed": false,
          "internalType": "uint256",
          "name": "timeStamp",
          "type": "uint256"
        }
      ],
      "name": "Ban",
      "type": "event"
    },
    {
      "anonymous": false,
      "inputs": [
        {
          "indexed": true,
          "internalType": "bytes32",
          "name": "userID",
          "type": "bytes32"
        },
        {
          "indexed": true,
          "internalType": "uint32",
          "name": "productionUnitID",
          "type": "uint32"
        },
        {
          "indexed": false,
          "internalType": "uint256",
          "name": "timeStamp",
          "type": "uint256"
        }
      ],
      "name": "Complaint",
      "type": "event"
    },
    {
      "anonymous": false,
      "inputs": [
        {
          "indexed": true,
          "internalType": "uint32",
          "name": "productionUnitID",
          "type": "uint32"
        },
        {
          "indexed": false,
          "internalType": "uint256",
          "name": "timeStamp",
          "type": "uint256"
        },
        {
          "indexed": false,
          "internalType": "uint8",
          "name": "result",
          "type": "uint8"
        }
      ],
      "name": "ComplaintHandled",
      "type": "event"
    },
    {
      "anonymous": false,
      "inputs": [
        {
          "indexed": true,
          "internalType": "bytes32",
          "name": "productionID",
          "type": "bytes32"
        },
        {
          "indexed": true,
          "internalType": "uint32",
          "name": "productionUnitID",
          "type": "uint32"
        },
        {
          "indexed": false,
          "internalType": "uint8",
          "name": "state",
          "type": "uint8"
        },
        {
          "indexed": false,
          "internalType": "uint256",
          "name": "timeStamp",
          "type": "uint256"
        }
      ],
      "name": "Confirm",
      "type": "event"
    },
    {
      "anonymous": false,
      "inputs": [
        {
          "indexed": true,
          "internalType": "uint32",
          "name": "productionUnitID",
          "type": "uint32"
        },
        {
          "indexed": false,
          "internalType": "uint256",
          "name": "timeStamp",
          "type": "uint256"
        }
      ],
      "name": "Sanction",
      "type": "event"
    },
    {
      "anonymous": false,
      "inputs": [
        {
          "indexed": true,
          "internalType": "bytes32",
          "name": "userID",
          "type": "bytes32"
        },
        {
          "indexed": true,
          "internalType": "uint32",
          "name": "productionUnitID",
          "type": "uint32"
        },
        {
          "indexed": false,
          "internalType": "uint256",
          "name": "timeStamp",
          "type": "uint256"
        },
        {
          "indexed": false,
          "internalType": "uint8",
          "name": "score",
          "type": "uint8"
        }
      ],
      "name": "Score",
      "type": "event"
    },
    {
      "anonymous": false,
      "inputs": [
        {
          "indexed": true,
          "internalType": "uint32",
          "name": "productionUnitID",
          "type": "uint32"
        },
        {
          "indexed": false,
          "internalType": "uint256",
          "name": "timeStamp",
          "type": "uint256"
        }
      ],
      "name": "UnitRegister",
      "type": "event"
    },
    {
      "anonymous": false,
      "inputs": [
        {
          "indexed": true,
          "internalType": "address",
          "name": "userAddress",
          "type": "address"
        },
        {
          "indexed": false,
          "internalType": "uint256",
          "name": "timeStamp",
          "type": "uint256"
        }
      ],
      "name": "UserRegister",
      "type": "event"
    },
    {
      "anonymous": false,
      "inputs": [
        {
          "indexed": true,
          "internalType": "uint32",
          "name": "productionUnitID",
          "type": "uint32"
        },
        {
          "indexed": false,
          "internalType": "uint256",
          "name": "timeStamp",
          "type": "uint256"
        }
      ],
      "name": "Warn",
      "type": "event"
    },
    {
      "anonymous": false,
      "inputs": [
        {
          "indexed": true,
          "internalType": "uint32",
          "name": "productionUnitID",
          "type": "uint32"
        },
        {
          "indexed": false,
          "internalType": "uint256",
          "name": "timeStamp",
          "type": "uint256"
        }
      ],
      "name": "WarnHandled",
      "type": "event"
    },
    {
      "inputs": [
        {
          "internalType": "uint256",
          "name": "_time",
          "type": "uint256"
        }
      ],
      "name": "generateProductID",
      "outputs": [
        {
          "internalType": "bytes32",
          "name": "",
          "type": "bytes32"
        }
      ],
      "stateMutability": "view",
      "type": "function",
      "constant": true
    },
    {
      "inputs": [
        {
          "internalType": "bytes32",
          "name": "productionID",
          "type": "bytes32"
        },
        {
          "internalType": "uint8",
          "name": "_state",
          "type": "uint8"
        }
      ],
      "name": "confirm",
      "outputs": [],
      "stateMutability": "nonpayable",
      "type": "function"
    },
    {
      "inputs": [
        {
          "internalType": "uint32",
          "name": "_productionUnitID",
          "type": "uint32"
        },
        {
          "internalType": "uint8",
          "name": "_score",
          "type": "uint8"
        }
      ],
      "name": "score",
      "outputs": [],
      "stateMutability": "nonpayable",
      "type": "function"
    },
    {
      "inputs": [
        {
          "internalType": "bytes32",
          "name": "_userID",
          "type": "bytes32"
        }
      ],
      "name": "banUser",
      "outputs": [],
      "stateMutability": "nonpayable",
      "type": "function"
    },
    {
      "inputs": [
        {
          "internalType": "uint32",
          "name": "_productionUnitID",
          "type": "uint32"
        }
      ],
      "name": "sanction",
      "outputs": [],
      "stateMutability": "nonpayable",
      "type": "function"
    },
    {
      "inputs": [
        {
          "internalType": "uint32",
          "name": "_productionUnitID",
          "type": "uint32"
        }
      ],
      "name": "unitRecover",
      "outputs": [],
      "stateMutability": "nonpayable",
      "type": "function"
    },
    {
      "inputs": [
        {
          "internalType": "bytes32",
          "name": "_userID",
          "type": "bytes32"
        }
      ],
      "name": "userRecover",
      "outputs": [],
      "stateMutability": "nonpayable",
      "type": "function"
    },
    {
      "inputs": [
        {
          "internalType": "string",
          "name": "_userID",
          "type": "string"
        }
      ],
      "name": "userRegister",
      "outputs": [
        {
          "internalType": "bool",
          "name": "",
          "type": "bool"
        }
      ],
      "stateMutability": "nonpayable",
      "type": "function"
    },
    {
      "inputs": [
        {
          "internalType": "address",
          "name": "_unitAddress",
          "type": "address"
        },
        {
          "internalType": "uint32",
          "name": "_addrCode",
          "type": "uint32"
        },
        {
          "internalType": "string",
          "name": "_name",
          "type": "string"
        }
      ],
      "name": "unitRegister",
      "outputs": [
        {
          "internalType": "uint32",
          "name": "",
          "type": "uint32"
        }
      ],
      "stateMutability": "nonpayable",
      "type": "function"
    },
    {
      "inputs": [
        {
          "internalType": "uint32",
          "name": "_productionUnitID",
          "type": "uint32"
        }
      ],
      "name": "complain",
      "outputs": [],
      "stateMutability": "nonpayable",
      "type": "function"
    },
    {
      "inputs": [
        {
          "internalType": "string",
          "name": "_ID",
          "type": "string"
        },
        {
          "internalType": "uint32",
          "name": "_productionUnitID",
          "type": "uint32"
        },
        {
          "internalType": "uint8",
          "name": "_result",
          "type": "uint8"
        }
      ],
      "name": "HandleComplain",
      "outputs": [],
      "stateMutability": "nonpayable",
      "type": "function"
    },
    {
      "inputs": [
        {
          "internalType": "uint32",
          "name": "_unitID",
          "type": "uint32"
        }
      ],
      "name": "getScore",
      "outputs": [
        {
          "internalType": "uint8",
          "name": "",
          "type": "uint8"
        }
      ],
      "stateMutability": "view",
      "type": "function",
      "constant": true
    },
    {
      "inputs": [
        {
          "internalType": "bytes32",
          "name": "_ID",
          "type": "bytes32"
        }
      ],
      "name": "getCredit",
      "outputs": [
        {
          "internalType": "uint8",
          "name": "",
          "type": "uint8"
        }
      ],
      "stateMutability": "view",
      "type": "function",
      "constant": true
    },
    {
      "inputs": [
        {
          "internalType": "address",
          "name": "_address",
          "type": "address"
        }
      ],
      "name": "getUserRegistered",
      "outputs": [
        {
          "internalType": "bool",
          "name": "",
          "type": "bool"
        }
      ],
      "stateMutability": "view",
      "type": "function",
      "constant": true
    },
    {
      "inputs": [],
      "name": "getUserID",
      "outputs": [
        {
          "internalType": "bytes32",
          "name": "",
          "type": "bytes32"
        }
      ],
      "stateMutability": "view",
      "type": "function",
      "constant": true
    },
    {
      "inputs": [],
      "name": "getUnitID",
      "outputs": [
        {
          "internalType": "uint32",
          "name": "",
          "type": "uint32"
        }
      ],
      "stateMutability": "view",
      "type": "function",
      "constant": true
    }
  ],
  "bytecode": "0x608060405234801561001057600080fd5b5060008060146101000a81548160ff021916908315150217905550336000806101000a81548173ffffffffffffffffffffffffffffffffffffffff021916908373ffffffffffffffffffffffffffffffffffffffff160217905550611e548061007a6000396000f3fe608060405234801561001057600080fd5b50600436106100ff5760003560e01c8063863682f411610097578063ddb9d64b11610066578063ddb9d64b146102a8578063e38b4f1c146102c4578063fa631e0c146102f4578063fd5216c814610324576100ff565b8063863682f41461020e578063881d97dc1461023e578063b37314d91461026e578063c3f7299c1461028a576100ff565b80632eeb6d7f116100d35780632eeb6d7f1461019c5780634b8fe13d146101ba578063576c63d7146101d6578063745f57e2146101f2576100ff565b80628a25fc14610104578063028615ae1461013457806313d41d5c146101645780631e83a09314610180575b600080fd5b61011e600480360381019061011991906116df565b610340565b60405161012b9190611727565b60405180910390f35b61014e60048036038101906101499190611778565b6103c1565b60405161015b91906117be565b60405180910390f35b61017e6004803603810190610179919061183e565b610447565b005b61019a600480360381019061019591906118ba565b61057e565b005b6101a461068b565b6040516101b191906117be565b60405180910390f35b6101d460048036038101906101cf919061194c565b6106eb565b005b6101f060048036038101906101eb91906118ba565b610864565b005b61020c600480360381019061020791906118ba565b610954565b005b610228600480360381019061022391906118ba565b610b05565b60405161023591906119cf565b60405180910390f35b610258600480360381019061025391906119ea565b610b3e565b6040516102659190611727565b60405180910390f35b61028860048036038101906102839190611a37565b610d55565b005b610292610e06565b60405161029f9190611a73565b60405180910390f35b6102c260048036038101906102bd9190611a8e565b610e5d565b005b6102de60048036038101906102d99190611a37565b61103f565b6040516102eb91906119cf565b60405180910390f35b61030e60048036038101906103099190611ace565b61106c565b60405161031b9190611a73565b60405180910390f35b61033e60048036038101906103399190611a37565b61132f565b005b60008060026000600460003373ffffffffffffffffffffffffffffffffffffffff1673ffffffffffffffffffffffffffffffffffffffff16815260200190815260200160002054815260200190815260200160002060010160009054906101000a900460ff1660ff16036103b757600090506103bc565b600190505b919050565b600080600360003373ffffffffffffffffffffffffffffffffffffffff1673ffffffffffffffffffffffffffffffffffffffff16815260200190815260200160002060009054906101000a900463ffffffff1683604051602001610426929190611b99565b60405160208183030381529060405280519060200120905080915050919050565b600060149054906101000a900460ff161561046157600080fd5b60016000600360003373ffffffffffffffffffffffffffffffffffffffff1673ffffffffffffffffffffffffffffffffffffffff16815260200190815260200160002060009054906101000a900463ffffffff1663ffffffff1663ffffffff16815260200190815260200160002060000160049054906101000a900460ff16156104ea57600080fd5b600360003373ffffffffffffffffffffffffffffffffffffffff1673ffffffffffffffffffffffffffffffffffffffff16815260200190815260200160002060009054906101000a900463ffffffff1663ffffffff16827f2fbf2c5e99aa8d3035c1e48207c3b401ddd6a3ae60d5b6410cbd6743dc9fc3638342604051610572929190611bd4565b60405180910390a35050565b600060149054906101000a900460ff161561059857600080fd5b600060026000600460003373ffffffffffffffffffffffffffffffffffffffff1673ffffffffffffffffffffffffffffffffffffffff16815260200190815260200160002054815260200190815260200160002060010160009054906101000a900460ff1660ff161161060a57600080fd5b8063ffffffff16600460003373ffffffffffffffffffffffffffffffffffffffff1673ffffffffffffffffffffffffffffffffffffffff168152602001908152602001600020547f239084da737eefdf0cec8ae51b890fcd37c5f8afede3665c71b647785b64557a426040516106809190611bfd565b60405180910390a350565b60008060149054906101000a900460ff16156106a657600080fd5b600460003373ffffffffffffffffffffffffffffffffffffffff1673ffffffffffffffffffffffffffffffffffffffff16815260200190815260200160002054905090565b600060149054906101000a900460ff161561070557600080fd5b60008054906101000a900473ffffffffffffffffffffffffffffffffffffffff1673ffffffffffffffffffffffffffffffffffffffff163373ffffffffffffffffffffffffffffffffffffffff161461075d57600080fd5b60006107ac85858080601f016020809104026020016040519081016040528093929190818152602001838380828437600081840152601f19601f8201169050808301925050505050505061140c565b905060018260ff16036107bf575061085e565b60008260ff16036108125760018060008563ffffffff1663ffffffff16815260200190815260200160002060000160046101000a81548160ff02191690831515021790555061080d8161141a565b61081c565b61081b81611499565b5b8263ffffffff167f65553ca69f6f527bb343f30a08be75ca19101f31f67a4572437252fa42c7231d4284604051610854929190611c18565b60405180910390a2505b50505050565b600060149054906101000a900460ff161561087e57600080fd5b60008054906101000a900473ffffffffffffffffffffffffffffffffffffffff1673ffffffffffffffffffffffffffffffffffffffff163373ffffffffffffffffffffffffffffffffffffffff16146108d657600080fd5b60011515600160008363ffffffff1663ffffffff16815260200190815260200160002060000160049054906101000a900460ff1615151461091657600080fd5b6000600160008363ffffffff1663ffffffff16815260200190815260200160002060000160046101000a81548160ff02191690831515021790555050565b600060149054906101000a900460ff161561096e57600080fd5b60008054906101000a900473ffffffffffffffffffffffffffffffffffffffff1673ffffffffffffffffffffffffffffffffffffffff163373ffffffffffffffffffffffffffffffffffffffff16146109c657600080fd5b60018060008363ffffffff1663ffffffff16815260200190815260200160002060000160046101000a81548160ff0219169083151502179055506000600160008363ffffffff1663ffffffff16815260200190815260200160002060000160056101000a81548160ff021916908360ff1602179055506000600160008363ffffffff1663ffffffff16815260200190815260200160002060020160006101000a81548161ffff021916908361ffff1602179055506000600160008363ffffffff1663ffffffff16815260200190815260200160002060020160026101000a81548167ffffffffffffffff021916908367ffffffffffffffff1602179055508063ffffffff167fe6d57c7cbfc1ace4fecce7e762aee1bb0183e1d376aa1eeaab48cc4ec0170e1442604051610afa9190611bfd565b60405180910390a250565b6000600160008363ffffffff1663ffffffff16815260200190815260200160002060000160059054906101000a900460ff169050919050565b600080610b8e84848080601f016020809104026020016040519081016040528093929190818152602001838380828437600081840152601f19601f8201169050808301925050505050505061140c565b90506005600082815260200190815260200160002060009054906101000a900460ff1680610c225750600060026000600460003373ffffffffffffffffffffffffffffffffffffffff1673ffffffffffffffffffffffffffffffffffffffff16815260200190815260200160002054815260200190815260200160002060010160009054906101000a900460ff1660ff1614155b15610c31576000915050610d4f565b60016005600083815260200190815260200160002060006101000a81548160ff02191690831515021790555080600460003373ffffffffffffffffffffffffffffffffffffffff1673ffffffffffffffffffffffffffffffffffffffff168152602001908152602001600020819055506040518060400160405280828152602001600260ff16815250600260008381526020019081526020016000206000820151816000015560208201518160010160006101000a81548160ff021916908360ff1602179055509050503373ffffffffffffffffffffffffffffffffffffffff167fdec4c13f1daa034ca2a06b9cee6c16accc0bd81ad27afacc15604c4f5cea09bb42604051610d419190611bfd565b60405180910390a260019150505b92915050565b600060149054906101000a900460ff1615610d6f57600080fd5b60008054906101000a900473ffffffffffffffffffffffffffffffffffffffff1673ffffffffffffffffffffffffffffffffffffffff163373ffffffffffffffffffffffffffffffffffffffff1614610dc757600080fd5b60006002600083815260200190815260200160002060010160009054906101000a900460ff1660ff1614610dfa57600080fd5b610e038161141a565b50565b6000600360003373ffffffffffffffffffffffffffffffffffffffff1673ffffffffffffffffffffffffffffffffffffffff16815260200190815260200160002060009054906101000a900463ffffffff16905090565b600060149054906101000a900460ff1615610e7757600080fd5b600060026000600460003373ffffffffffffffffffffffffffffffffffffffff1673ffffffffffffffffffffffffffffffffffffffff16815260200190815260200160002054815260200190815260200160002060010160009054906101000a900460ff1660ff1611610ee957600080fd5b8163ffffffff16600460003373ffffffffffffffffffffffffffffffffffffffff1673ffffffffffffffffffffffffffffffffffffffff168152602001908152602001600020547fc89b0ce400fac9914e991bc93a9345649a02520d3ca69773a5ced6fc8f6d94b54284604051610f61929190611c18565b60405180910390a38060ff16600160008463ffffffff1663ffffffff16815260200190815260200160002060020160028282829054906101000a900467ffffffffffffffff16610fb19190611c84565b92506101000a81548167ffffffffffffffff021916908367ffffffffffffffff160217905550600160008363ffffffff1663ffffffff168152602001908152602001600020600201600081819054906101000a900461ffff168092919061101790611cd0565b91906101000a81548161ffff021916908361ffff1602179055505061103b82611518565b5050565b60006002600083815260200190815260200160002060010160009054906101000a900460ff169050919050565b60008060149054906101000a900460ff161561108757600080fd5b60008054906101000a900473ffffffffffffffffffffffffffffffffffffffff1673ffffffffffffffffffffffffffffffffffffffff163373ffffffffffffffffffffffffffffffffffffffff16146110df57600080fd5b600660008673ffffffffffffffffffffffffffffffffffffffff1673ffffffffffffffffffffffffffffffffffffffff16815260200190815260200160002060009054906101000a900460ff161561113657600080fd5b600061118584848080601f016020809104026020016040519081016040528093929190818152602001838380828437600081840152601f19601f8201169050808301925050505050505061140c565b90506000611192866115cb565b905080600360008973ffffffffffffffffffffffffffffffffffffffff1673ffffffffffffffffffffffffffffffffffffffff16815260200190815260200160002060006101000a81548163ffffffff021916908363ffffffff1602179055506040518060c001604052808263ffffffff168152602001600015158152602001600060ff168152602001838152602001600061ffff168152602001600067ffffffffffffffff16815250600160008363ffffffff1663ffffffff16815260200190815260200160002060008201518160000160006101000a81548163ffffffff021916908363ffffffff16021790555060208201518160000160046101000a81548160ff02191690831515021790555060408201518160000160056101000a81548160ff021916908360ff1602179055506060820151816001015560808201518160020160006101000a81548161ffff021916908361ffff16021790555060a08201518160020160026101000a81548167ffffffffffffffff021916908367ffffffffffffffff1602179055509050508092505050949350505050565b600060149054906101000a900460ff161561134957600080fd5b60008054906101000a900473ffffffffffffffffffffffffffffffffffffffff1673ffffffffffffffffffffffffffffffffffffffff163373ffffffffffffffffffffffffffffffffffffffff16146113a157600080fd5b60006002600083815260200190815260200160002060010160006101000a81548160ff021916908360ff160217905550807f57701639fa7f9eabc45bf6872e7fc0025292333f330933a4d8c392ccdea244f4426040516114019190611bfd565b60405180910390a250565b600060208201519050919050565b60056002600083815260200190815260200160002060010160009054906101000a900460ff1660ff1610156114965760026000828152602001908152602001600020600101600081819054906101000a900460ff168092919061147c90611cfa565b91906101000a81548160ff021916908360ff160217905550505b50565b60006002600083815260200190815260200160002060010160009054906101000a900460ff1660ff1611156115155760026000828152602001908152602001600020600101600081819054906101000a900460ff16809291906114fb90611d23565b91906101000a81548160ff021916908360ff160217905550505b50565b600160008263ffffffff1663ffffffff16815260200190815260200160002060020160009054906101000a900461ffff1661ffff16600160008363ffffffff1663ffffffff16815260200190815260200160002060020160029054906101000a900467ffffffffffffffff1661158e9190611d7b565b600160008363ffffffff1663ffffffff16815260200190815260200160002060000160056101000a81548160ff021916908360ff16021790555050565b600080600760008463ffffffff1663ffffffff16815260200190815260200160002060009054906101000a900461ffff1661ffff16600c8463ffffffff16901b6116159190611dac565b90506001600760008563ffffffff1663ffffffff16815260200190815260200160002060008282829054906101000a900461ffff166116549190611de6565b92506101000a81548161ffff021916908361ffff16021790555080915050919050565b600080fd5b600080fd5b600073ffffffffffffffffffffffffffffffffffffffff82169050919050565b60006116ac82611681565b9050919050565b6116bc816116a1565b81146116c757600080fd5b50565b6000813590506116d9816116b3565b92915050565b6000602082840312156116f5576116f4611677565b5b6000611703848285016116ca565b91505092915050565b60008115159050919050565b6117218161170c565b82525050565b600060208201905061173c6000830184611718565b92915050565b6000819050919050565b61175581611742565b811461176057600080fd5b50565b6000813590506117728161174c565b92915050565b60006020828403121561178e5761178d611677565b5b600061179c84828501611763565b91505092915050565b6000819050919050565b6117b8816117a5565b82525050565b60006020820190506117d360008301846117af565b92915050565b6117e2816117a5565b81146117ed57600080fd5b50565b6000813590506117ff816117d9565b92915050565b600060ff82169050919050565b61181b81611805565b811461182657600080fd5b50565b60008135905061183881611812565b92915050565b6000806040838503121561185557611854611677565b5b6000611863858286016117f0565b925050602061187485828601611829565b9150509250929050565b600063ffffffff82169050919050565b6118978161187e565b81146118a257600080fd5b50565b6000813590506118b48161188e565b92915050565b6000602082840312156118d0576118cf611677565b5b60006118de848285016118a5565b91505092915050565b600080fd5b600080fd5b600080fd5b60008083601f84011261190c5761190b6118e7565b5b8235905067ffffffffffffffff811115611929576119286118ec565b5b602083019150836001820283011115611945576119446118f1565b5b9250929050565b6000806000806060858703121561196657611965611677565b5b600085013567ffffffffffffffff8111156119845761198361167c565b5b611990878288016118f6565b945094505060206119a3878288016118a5565b92505060406119b487828801611829565b91505092959194509250565b6119c981611805565b82525050565b60006020820190506119e460008301846119c0565b92915050565b60008060208385031215611a0157611a00611677565b5b600083013567ffffffffffffffff811115611a1f57611a1e61167c565b5b611a2b858286016118f6565b92509250509250929050565b600060208284031215611a4d57611a4c611677565b5b6000611a5b848285016117f0565b91505092915050565b611a6d8161187e565b82525050565b6000602082019050611a886000830184611a64565b92915050565b60008060408385031215611aa557611aa4611677565b5b6000611ab3858286016118a5565b9250506020611ac485828601611829565b9150509250929050565b60008060008060608587031215611ae857611ae7611677565b5b6000611af6878288016116ca565b9450506020611b07878288016118a5565b935050604085013567ffffffffffffffff811115611b2857611b2761167c565b5b611b34878288016118f6565b925092505092959194509250565b60008160e01b9050919050565b6000611b5a82611b42565b9050919050565b611b72611b6d8261187e565b611b4f565b82525050565b6000819050919050565b611b93611b8e82611742565b611b78565b82525050565b6000611ba58285611b61565b600482019150611bb58284611b82565b6020820191508190509392505050565b611bce81611742565b82525050565b6000604082019050611be960008301856119c0565b611bf66020830184611bc5565b9392505050565b6000602082019050611c126000830184611bc5565b92915050565b6000604082019050611c2d6000830185611bc5565b611c3a60208301846119c0565b9392505050565b600067ffffffffffffffff82169050919050565b7f4e487b7100000000000000000000000000000000000000000000000000000000600052601160045260246000fd5b6000611c8f82611c41565b9150611c9a83611c41565b92508267ffffffffffffffff03821115611cb757611cb6611c55565b5b828201905092915050565b600061ffff82169050919050565b6000611cdb82611cc2565b915061ffff8203611cef57611cee611c55565b5b600182019050919050565b6000611d0582611805565b915060ff8203611d1857611d17611c55565b5b600182019050919050565b6000611d2e82611805565b915060008203611d4157611d40611c55565b5b600182039050919050565b7f4e487b7100000000000000000000000000000000000000000000000000000000600052601260045260246000fd5b6000611d8682611c41565b9150611d9183611c41565b925082611da157611da0611d4c565b5b828204905092915050565b6000611db78261187e565b9150611dc28361187e565b92508263ffffffff03821115611ddb57611dda611c55565b5b828201905092915050565b6000611df182611cc2565b9150611dfc83611cc2565b92508261ffff03821115611e1357611e12611c55565b5b82820190509291505056fea264697066735822122043da90ba45a1bd80bd21bc5c6aeee9106650a8ca6947d0fe5422c6ebc9642b2d64736f6c634300080d0033",
  "immutableReferences": {},
  "source": "pragma solidity ^0.8.0;\r\nimport \"./Event.sol\";\r\nimport \"./Model.sol\";\r\n\r\ncontract ProductTraceabilitySystem is Event, Model {\r\n    address admin;\r\n    bool closed;\r\n    mapping(uint32 => ProductionUnit) IDToUnit;\r\n    mapping(bytes32 => User) IDToUser;\r\n    mapping(address => uint32) addressToUnitID;\r\n    mapping(address => bytes32) addressToUserID;\r\n    mapping(bytes32 => bool) userRegistered;\r\n    mapping(address => bool) unitRegistered;\r\n    mapping(uint32 => uint16) registerCounter;\r\n\r\n    constructor() {\r\n        closed = false;\r\n        admin = msg.sender;\r\n    }\r\n\r\n    function generateProductID(uint256 _time) public view returns (bytes32) {\r\n        //require(!closed);\r\n        // require(unitRegistered[msg.sender]);\r\n        // require(!IDToUnit[addressToUnitID[msg.sender]].banned);\r\n\r\n        bytes32 ID = keccak256(\r\n            abi.encodePacked(addressToUnitID[msg.sender], _time)\r\n        );\r\n        return ID;\r\n    }\r\n\r\n    function confirm(bytes32 productionID, uint8 _state) public {\r\n        require(!closed);\r\n        require(!IDToUnit[addressToUnitID[msg.sender]].banned);\r\n        //bytes32 _byteProductionID = stringToBytes32(_productionID);\r\n        emit Confirm(\r\n            productionID,\r\n            addressToUnitID[msg.sender],\r\n            _state,\r\n            block.timestamp\r\n        );\r\n    }\r\n\r\n    function stringToBytes32(string memory source)\r\n        internal\r\n        pure\r\n        returns (bytes32 result)\r\n    {\r\n        assembly {\r\n            result := mload(add(source, 32))\r\n        }\r\n    }\r\n\r\n    function score(uint32 _productionUnitID, uint8 _score) public {\r\n        require(!closed);\r\n        require(IDToUser[addressToUserID[msg.sender]].credit > 0);\r\n        emit Score(\r\n            addressToUserID[msg.sender],\r\n            _productionUnitID,\r\n            block.timestamp,\r\n            _score\r\n        );\r\n        IDToUnit[_productionUnitID].scores += _score;\r\n        IDToUnit[_productionUnitID].power++;\r\n        updateScore(_productionUnitID);\r\n    }\r\n\r\n    function updateScore(uint32 _productionUnitID) internal {\r\n        IDToUnit[_productionUnitID].score = uint8(\r\n            IDToUnit[_productionUnitID].scores /\r\n                IDToUnit[_productionUnitID].power\r\n        );\r\n    }\r\n\r\n    function banUser(bytes32 _userID) public {\r\n        require(!closed);\r\n        require(msg.sender == admin);\r\n        IDToUser[_userID].credit = 0;\r\n        emit Ban(_userID, block.timestamp);\r\n    }\r\n\r\n    function sanction(uint32 _productionUnitID) public {\r\n        require(!closed);\r\n        require(msg.sender == admin);\r\n        IDToUnit[_productionUnitID].banned = true;\r\n        IDToUnit[_productionUnitID].score = 0;\r\n        IDToUnit[_productionUnitID].power = 0;\r\n        IDToUnit[_productionUnitID].scores = 0;\r\n        emit Sanction(_productionUnitID, block.timestamp);\r\n    }\r\n\r\n    function unitRecover(uint32 _productionUnitID) public {\r\n        require(!closed);\r\n        require(msg.sender == admin);\r\n        require(IDToUnit[_productionUnitID].banned == true);\r\n        IDToUnit[_productionUnitID].banned = false;\r\n    }\r\n\r\n    function userRecover(bytes32 _userID) public {\r\n        require(!closed);\r\n        require(msg.sender == admin);\r\n        require(IDToUser[_userID].credit == 0);\r\n        plusCredit(_userID);\r\n    }\r\n\r\n    function userRegister(string calldata _userID) public returns (bool) {\r\n        bytes32 _ID = stringToBytes32(_userID);\r\n        if (\r\n            userRegistered[_ID] ||\r\n            !(IDToUser[addressToUserID[msg.sender]].credit == 0)\r\n        ) {\r\n            return false;\r\n        }\r\n\r\n        userRegistered[_ID] = true;\r\n        addressToUserID[msg.sender] = _ID;\r\n        IDToUser[_ID] = User({ID: _ID, credit: 2});\r\n        emit UserRegister(msg.sender, block.timestamp);\r\n        return true;\r\n    }\r\n\r\n    function unitRegister(\r\n        address _unitAddress,\r\n        uint32 _addrCode,\r\n        string calldata _name\r\n    ) public returns (uint32) {\r\n        require(!closed);\r\n        require(msg.sender == admin);\r\n        require(!unitRegistered[_unitAddress]);\r\n        bytes32 name = stringToBytes32(_name);\r\n        uint32 _ID = getNewUintID(_addrCode);\r\n        addressToUnitID[_unitAddress] = _ID;\r\n        IDToUnit[_ID] = ProductionUnit({\r\n            ID: _ID,\r\n            name: name,\r\n            banned: false,\r\n            score: 0,\r\n            power: 0,\r\n            scores: 0\r\n        });\r\n        return _ID;\r\n        emit UnitRegister(_ID, block.timestamp);\r\n    }\r\n\r\n    function complain(uint32 _productionUnitID) public {\r\n        require(!closed);\r\n        require(IDToUser[addressToUserID[msg.sender]].credit > 0);\r\n        emit Complaint(\r\n            addressToUserID[msg.sender],\r\n            _productionUnitID,\r\n            block.timestamp\r\n        );\r\n    }\r\n\r\n    function HandleComplain(\r\n        string calldata _ID,\r\n        uint32 _productionUnitID,\r\n        uint8 _result\r\n    ) public {\r\n        require(!closed);\r\n        require(msg.sender == admin);\r\n        bytes32 _userID = stringToBytes32(_ID);\r\n        if (_result == 1) {\r\n            return;\r\n        }\r\n        if (_result == 0) {\r\n            IDToUnit[_productionUnitID].banned = true;\r\n            plusCredit(_userID);\r\n        } else {\r\n            minusCredit(_userID);\r\n        }\r\n        emit ComplaintHandled(_productionUnitID, block.timestamp, _result);\r\n    }\r\n\r\n    function getNewUintID(uint32 _addrCode) internal returns (uint32) {\r\n        uint32 result = (_addrCode << 12) + registerCounter[_addrCode];\r\n        registerCounter[_addrCode] += 1;\r\n        return result;\r\n    }\r\n\r\n    function minusCredit(bytes32 _ID) internal {\r\n        if (IDToUser[_ID].credit > 0) {\r\n            IDToUser[_ID].credit--;\r\n        }\r\n    }\r\n\r\n    function plusCredit(bytes32 _ID) internal {\r\n        if (IDToUser[_ID].credit < 5) {\r\n            IDToUser[_ID].credit++;\r\n        }\r\n    }\r\n\r\n    function getScore(uint32 _unitID) public view returns (uint8) {\r\n        return IDToUnit[_unitID].score;\r\n    }\r\n\r\n    function getCredit(bytes32 _ID) public view returns (uint8) {\r\n        //bytes32 _userID = stringToBytes32(_ID);\r\n        return IDToUser[_ID].credit;\r\n    }\r\n\r\n    function getUserRegistered(address _address) public view returns (bool) {\r\n        if (IDToUser[addressToUserID[msg.sender]].credit == 0) {\r\n            return false;\r\n        }\r\n        return true;\r\n    }\r\n\r\n    function getUserID() public view returns (bytes32) {\r\n        require(!closed);\r\n        return addressToUserID[msg.sender];\r\n    }\r\n\r\n    function Bytes32ToString(bytes32 b32name)\r\n        internal\r\n        pure\r\n        returns (string memory)\r\n    {\r\n        bytes memory bytesString = new bytes(32);\r\n\r\n        // \r\n        uint256 charCount = 0;\r\n\r\n        // \r\n        for (uint32 i = 0; i < 32; i++) {\r\n            bytes1 char = bytes1(bytes32(uint256(b32name) * 2**(8 * i)));\r\n\r\n            if (char != 0) {\r\n                bytesString[charCount] = char;\r\n                charCount++;\r\n            }\r\n        }\r\n\r\n        // charCount\r\n        bytes memory bytesStringTrimmed = new bytes(charCount);\r\n        for (uint256 i = 0; i < charCount; i++) {\r\n            bytesStringTrimmed[i] = bytesString[i];\r\n        }\r\n\r\n        return string(bytesStringTrimmed);\r\n    }\r\n\r\n    function getUnitID() public view returns (uint32) {\r\n        return addressToUnitID[msg.sender];\r\n    }\r\n}\r\n",
  "sourcePath": "D:\\codes\\ProduceTraceabilitySystem\\contracts\\ProductTraceabilitySystem.sol",
  "compiler": {
    "name": "solc",
    "version": "0.8.13+commit.abaa5c0e.Emscripten.clang"
  },
  "schemaVersion": "3.4.7",
  "updatedAt": "2022-05-06T11:50:42.728Z",
  "networkType": "ethereum",
  "devdoc": {
    "kind": "dev",
    "methods": {},
    "version": 1
  },
  "userdoc": {
    "kind": "user",
    "methods": {},
    "version": 1
  }
}